:100000000C94FB0F0C94C31D0C949C1D0C9423109A
:100010000C9423100C9423100C948B190C94231023
:100020000C9423100C94EA1D0C9423100C942310B0
:100030000C9423100C9423100C9423100C94231074
:100040000C94C1250C9423100C9423100C942310B1
:100050000C9423100C9423100C9423100C94231054
:100060000C945C1E0C942310842992299D29A829A4
:10007000B529BB29C229CD29D8295F00030304046F
:100080000204050B0BFEFE070007FE015802C30326
:10009000F92005006205210772234DE4242208346B
:1000A0007285642500230C66E24D288B2514398463
:1000B000042410B59A5D30264A49934546B5600838
:1000C00000251179A2964C92A41407448491889239
:1000D0005102260E76E2952C941253898C229400BC
:1000E000270632F24C01280A931A552414D12916F6
:1000F000290B931A452C14926849022A0B56E64D97
:100100002826B25044022B0A66A15D3464122A01EB
:100110002C0732990C05002D0725AAC541022E0691
:1001200022E2CC002F0B75A29D48268B29C90030F6
:100130000D77229E30941691318D6400310772E262
:10014000CC2472320A75A2952831A4AD00330C7606
:10015000E2952C148D89492600340D76E2655016FF
:1001600009A5D8841200350B75A2D524161D8E243E
:1001700004360D76E29D2C14898E44242500370A1E
:1001800074A3052D94A40900380C76E2952C944DA7
:1001900024222901390C74628D24248A8C244A007B
:1001A0003A0752E24C74003B0762994C94023C08B7
:1001B00056E6A548913A3D07346A0591003E0A5635
:1001C000E685583A1909013F0C75A2CD249626926E
:1001D00043440040169A995E311A0AAD8442935006
:1001E00068128A9024B238CC02410B76E2952C94A6
:1001F000E5106212420D76E20D2916895964330B1F
:1002000000430A75A2952825A6AD00440B76E20DA1
:100210002916896DB300450B75A20D2518A3C86476
:1002200005460B75A20D2518A3C8D400470C76E22D
:1002300015251A94D4661600480B76E24D282F87B0
:10024000109300490872E24CCA41004A0B94199578
:100250002C49A78808004B0F76E24D2C124A09CD95
:1002600024215144164C0975A24D304D5B014D0CB3
:1002700079A2964416CA8B94AB004E1178624E3028
:10028000240B454211498814A115054F0D7722D63C
:100290002C291691B1894600500C76E20D29168959
:1002A0001D848A00510D871ED62C291691318DC8C8
:1002B00002520E76E20D2916891D2421514416534F
:1002C0000B75A29528252A1D5500540A75A24529AB
:1002D00018D30900550B76E24D282F22A64300566D
:1002E0000F75A24D28128A84562292C80800571012
:1002F00079A24E34140D452352528814B210580E70
:1003000077224E2C144B8906256A3401590B75A2AD
:10031000454C16498B69025A0976E24D3598A66814
:100320005B0A945ACD2496A413015C0B75A28550E8
:10033000260CCA84025D09931AC5288B96025E08B2
:10034000446E55CA44145F07259EC54102600732BA
:1003500033458400610B56E2952C143984480262BF
:100360000A56E20D2966915900630955A295283471
:100370009315640956E20D29B66601650955A20D6B
:1003800025469115660A55A20D254691C9006709B3
:1003900056E2152528A91D680A56E24D28CB2144AE
:1003A00012690752E24CE4006A0A74D8942CA4291A
:1003B00022026B0C55A24D289232924444016C08E3
:1003C00055A24D30A6566D0D59A29644164A118578
:1003D000A854016E0D57224E2C248A4822A49A005C
:1003E0006F0B5722D62C4546138D00700A56E20D2E
:1003F0002966110A01710B671ED62C45461A910514
:10040000720A56E20D2966918414730A55A2D52406
:100410002A115500740955A24529A60900750A56E6
:10042000E24D288B887408760D55A24D28129A4407
:1004300024911100770E59A24E34148D8842A49055
:100440008500780B57224E2C251A94A809790A5555
:10045000A2452C921653027A0855A20D2DA4567B64
:100460000B96DA9D2C9A2616AA0E7C0892DE4C96E4
:1004700003017D0C96DA8D389A2C122ACD007E0A63
:10048000372A8E30228A4D0000000004FFFF000052
:100490004100030204040304050E0EFFFC080008DB
:1004A000FF000000000213200500C4092107714568
:1004B0008A4109220733ED8AC41223117745AC24FF
:1004C0004CA26148A268989230C900240F95BDAB38
:1004D0006C50A224DB922819B408251489C51D2D5F
:1004E000AA6451122A399288499425514D01260D4A
:1004F00086452C2D4DB5C43464CA12270631ED89CA
:10050000012809923D9A44E99404290A923D8A24DB
:100510004A5A94042A0A55DCAA4AE52045002B0BC6
:1005200067C5BC381B862CAE012C0621BD09012DE8
:100530000613548A012E0611C589002F0A83BCA90F
:1005400096A8124500300A85C59B25F32D59003128
:100550000985C5AB68EC6910320A84458B312BB52F
:100560000D01330C85C58B210D93350C0705340D1A
:1005700075CDBB4C4AA2A4940C5A02350C84458B11
:1005800025CBC62C1B1200360D85C5AB250B872449
:10059000B3250B00370B75458B41CCC22C2C013891
:1005A0000D85C59B25D39225B3250B00390D85C537
:1005B0009B25B32543982513003A0651C5892C3B4A
:1005C0000661BD894C3C0B67C5EC6C597560070230
:1005D0003D0736558CF3303E0B57C58C1CD8816DCA
:1005E00019013F0B84458B318B6A391001401699F4
:1005F000B5BD2113A36448942C51B244C99283A47D
:100600004343045B08923D8AA52F025C0A83BC89A0
:10061000288B6A51015D08923D0AA52F035E0835BB
:100620006EAC2CA9055F0615AC8A41600622F58ADE
:10063000287B0A93B61B25AA6451497C07A1B5897A
:1006400087007D0B94B60BAD51C94A12007E082776
:10065000D51C4D5A00A00500440BA409444D8B4104
:10066000920601A70D94BD9A219392D2126943027A
:10067000AB0A454DAB6450126908AC07364D8C6B24
:1006800001B00833E50A251902B608843D9BE193C1
:1006900007B70611DD8900BB0A444D8B244A2A4A5C
:1006A00002D70C66458C308932518BE200F70B572C
:1006B000CDBC1C1B861CCB0000000008FB51046E47
:1006C000FFFF060C0721C50901061B0751C40929B4
:1006D000061F0B73CD8A21AAA50900062107334402
:1006E0009A4D06220A83CC891D88BA0006230A93F4
:1006F000C499DA16750106240EA4B51A259495D26C
:1007000014291900062508A2B4997E3106261097EF
:1007100034BC34D61131CA94704D060506270871D1
:10072000CD89430006281069B58D1CD0011D48866F
:100730002127840006290B64458B24562269100664
:100740002A1059C5BD24CB011DD0816418120006A2
:100750002B1179C5CD9C946439A0033A900C4302C7
:10076000062C0C76351C79D1D2A83C08062D0D86B6
:10077000359C3089172D2D0F02062E0D963DBC1C81
:1007800099172D2D0F02062F0A5445AB2CCC860449
:1007900006300D84459B1CC9C22C1B120006310972
:1007A00054BDBAA6440206320B84B5AA1CCD4A89B0
:1007B000040633116C347E3047A2348AD44109E5F3
:1007C00021070634139C347E2467A933265914A9C3
:1007D0008312CA430E0635126CB47E6847A234C930
:1007E000D441097360C8010636148CB47E2867DAD8
:1007F00091284D327550C21C18720006370E87457D
:100800009CB89334255232480006381087459CB86E
:1008100012C69134255232480006390D85342B29F1
:100820001CA2AC280E01063A0EA534AB1C92C221C4
:10083000CA8AE21006400713C4890106411189C51E
:100840007D206754D2441D722019860406420F870A
:10085000B44B1D15236D484565880006430D86453C
:10086000DC92528BBA0E0B0006440C973CECCEAADD
:100870003519140006450C85352B291A86B023003E
:1008800006460E67B4BB1C2926A9180D11000647A1
:100890000A444D1B2592060106480B64B51AA5347F
:1008A000454A0606490D67345C31CA94704D060509
:1008B000064A0E772C5C31CA94704D064D03064BE8
:1008C00007117C8800064C08336B980B00064D0717
:1008D000112D8800064E06007408064F08326C0879
:1008E0004501065007112D8800065107236B086546
:1008F0000652072274882106530713748801065490
:1009000007326C1803065507322C88450656071126
:100910003D8800066007125E0B0106610A73C68BF4
:100920002CAA450506620C75C58B2C99C2342C0186
:1009300006630D8545AB444986210DDB0006640B3B
:10094000734E9B5A9444990006650B544D9B28297D
:1009500049430206660965C58B21EC1A06670C85BA
:10096000454B4DAA449A580206680C7545ABCCA974
:100970001225590006690D85C51B29899268085BF7
:1009800003066A0E95BD0B6909B3300BB3681206F6
:100990006B0B84B3B9521665A50C066C0832BD9971
:1009A0004401066D0B45DDAB6890B224010670066C
:1009B00000740806710A83C489458CBA00067E1249
:1009C00079AD8D1CD0011D48862187931C08010636
:1009D000860D862D1C79D1D2A4A93C0806980C94CA
:1009E000BDAA4847B352220106A41499C57D200729
:1009F000929C4D491375C8816418120006A910799C
:100A0000CD7D40D5812C8DE2248E860906AF118ADA
:100A1000C57D4456E2394CA5388AB3610306C00D42
:100A200084451B25D3012592060106CC0D67345C55
:100A300031CA94704D060506F00933D68B21190290
:100A400006F10A73C68B2CAA450506F20C75C58BF8
:100A50002C99C2342C0106F30D8545AB44498621FF
:100A60000DDB0006F40D85C5BB251B92300D4B0038
:100A700006F50E75C5AB2C89929A2559120006F61B
:100A80000D75459B25CC92290B430006F70C854537
:100A90004B4DAA449A580206F80C7545ABCCA912E6
:100AA00025590006F90D85C51B29899268085B0345
:100AB000200C08A124888700200D08A22308A57F08
:100AC000200E09A22488A5BF00200F08A22308A594
:100AD0007F20100713548A012014081A548D8700B0
:100AE00020220833D50A651820260817C58CA800CF
:100AF000202F0600C40820AC0D86C4BB290C076556
:100B0000C8E278221207165D8C0322190711DD89CD
:100B10000025CC0B77BCBB9CA4E6240DFB500A83BC
:100B2000C489458CBA00FB510A84448A49CEDA064E
:100B3000FB561279AD8D1CD0011D48862187931C70
:100B40000801FB57138BA58D1CCB913A900D43A246
:100B500013929C1C03FB580A732CAA684CC204FB1A
:100B6000590B74A3A92C19525901FB6A1499C57D1C
:100B70002007929C4D491375C88164181200FB6BC5
:100B8000118AC57D2047EA0CB19226D5695804FB2D
:100B90006C0D84C49A1D9292641B1200FB6D0D852E
:100BA000C4AA2CC96129899641FB7A0D862D1C792E
:100BB000D1D2A4A93C08FB7B12872D1C1D98942838
:100BC0004C1265CA72605000FB7C0F87A49B1DD835
:100BD000A42107931C0D01FB7D1088249C1D19A7DF
:100BE00021D2A12427A400FB8A0C94BDAA4847B3B4
:100BF000522201FB8B0EA52D9B1CD2296128451A80
:100C000000FB8E1079CD7D40D5812C8DE2248E861F
:100C100009FB8F138B457E2847742487D2548BA5FC
:100C2000581B2601FB900B75C33A454B8BC904FB3F
:100C3000910B76443B498CABCA14FB92118AC57D5B
:100C40004456E2394CA5388AB36103FB93158BC532
:100C50007D4407941CD88134D572208A9368980407
:100C6000FB940C85C3CA485BD2623201FB950C86AB
:100C700044BB4C9C6255940CFBA40D84451B25D3AE
:100C80000125920601FBA50D85459B2C543329892E
:100C90008634FBE808334CAA6801FBE90934C3A990
:100CA0002C1902FBFC0D67345C31CA94704D0605AB
:100CB000FBFD0C48349C381CD2689000FBFE0953A5
:100CC0003CAA684C02FBFF0A54B3A92C195205FC3C
:100CD0005E0A53E49941C91600FC5F0A53DC0965BA
:100CE0000A1300FC600943ECA9245106FC61095376
:100CF000E4096D5106FC620833EC09650AFC6308DF
:100D000043EC995019FD3C09844C0AAD6F03FD3D3D
:100D10000983C41969EA05FD3E15C7ACEB5053B20F
:100D20004D9106454A12D3A08D49BA00FD3F15C723
:100D3000AC8B784DD24D9106454A12D3A06D493601
:100D400002FDFC1EADB4DE24C7921C4B722CC9B14F
:100D5000244AD2244AC46412D3244B926D8700FEE5
:100D6000800733449A4DFE810A83CC891D88BA00DE
:100D7000FE8209844C8A39EB36FE830A93C499DAE1
:100D8000167501FE840A94449A28D37A1BFE850EB8
:100D9000A4B51A259495D214291900FE8610B52DF4
:100DA0001B2DD4A12C89926C8BA410FE8708A2B4B1
:100DB000997E31FE880BB3AC99A84F4A4901FE8950
:100DC000109734BC34D61131CA94704D0605FE8A92
:100DD000108834CC384774300E87341A2400FE8BC8
:100DE0000B83449A920E450B00FE8C0C74C319259C
:100DF000D4812C1902FE8D0871CD894300FE8E0925
:100E000082C589A42F02FE8F1069B58D1CD0011DEB
:100E1000488621278400FE90116BB58D1CCB913A3A
:100E2000900D43A2536200FE9109533CAA684D0005
:100E3000FE920A54B3A92C19E204FE930B64458B6D
:100E40002456226910FE940D85459B3A92495365BC
:100E50004803FE951059C5BD24CB011DD0816418EF
:100E60001200FE960F5BC54D35C772A40E64C39089
:100E700008FE970A63448A2447A205FE980A54C3D1
:100E8000191DC89221FE991179C5CD9C946439A091
:100E9000033A900C4302FE9A117BC5DD9CACE658E8
:100EA0008ED4816C181201FE9B0B83449A30C99139
:100EB0006801FE9C0B74C3195907B26408FE9D0CAF
:100EC00076351C79D1D2A83C08FE9E11872D1C1DB9
:100ED0009894284CA264CE814101FE9F0D67B49B7B
:100EE0001DD8A421474300FEA00D68349C1D19A7FE
:100EF00021D2B114FEA10D86359C3089172D2D0FFE
:100F000002FEA210872D1C1D9894284CC23907069A
:100F100005FEA30B47C49B1DD8A42103FEA40B48C8
:100F2000449C1D19A72112FEA50D963DBC1C9917C6
:100F30002D2D0F02FEA613B72DBC1C4C776052A2BC
:100F40003009E71C181400FEA70D77C4BB9CB8033A
:100F50009B346400FEA80D7844BC9C6147C6698838
:100F600004FEA90A5445AB2CCC8604FEAA0A56C539
:100F7000AB344EA345FEAB0D84459B1CC9C22C1B54
:100F80001200FEAC0B86C59B1C2DA7A545FEAD0926
:100F900054BDBAA64402FEAE0A552DBB3094220DB4
:100FA000FEAF0B84B5AA1CCD4A8904FEB00C852D7A
:100FB0009B9C148652A401FEB1116C347E3047A272
:100FC000348AD44109E52107FEB2105C347EA41CAA
:100FD00025C561107360C801FEB30E49447D244BE2
:100FE000A22C89860B00FEB40D3A44BD2809A32427
:100FF000392401FEB5139C347E2467A93326591485
:10100000A98312CA430EFEB6139C347E2067D239E0
:1010100046497118C41C187200FEB70F7944CD9C64
:1010200094E4E42C89860B00FEB80E7A44DD9CA87B
:10103000334749724802FEB9126CB47E6847A23445
:10104000C9D441097360C801FEBA136DB47E6887C4
:10105000943891927418C41C197204FEBB0C49C3D5
:101060006C39AA64CBA000FEBC0E4AC36C1D88B2CA
:10107000244B946108FEBD148CB47E2867DA912855
:101080004D327550C21C187200FEBE158DB47E28FC
:1010900067DC21254EA4241D063147861C01FEBFB6
:1010A0000E69C3DC9C2847956C191400FEC0106AB9
:1010B000C3DC9CAC0351966489320C01FEC10E87DF
:1010C000459CB893342552324800FEC21388C59C13
:1010D0001CC8811CC881489B22291A0601FEC30E28
:1010E00087C49BB893342552324800FEC413884409
:1010F0009C1CC8811CC881489B22291A0601FEC578
:101100001087459CB812C691342552324800FEC65D
:101110001388C59C1CC88124CD81489B22291A06AE
:1011200001FEC71087C49BB812C6913425523248BD
:1011300000FEC81388449C1CC88124CD81489B2292
:10114000291A0601FEC90D85342B291CA2AC280ED4
:1011500001FECA0B653D2B4D516AEA10FECB0A45D4
:10116000449B298C0605FECC09344C1A2D5102FEF5
:10117000CD0EA534AB1C92C221CA8AE210FECE0E5F
:101180009535BB1CD1A445A9A94300FECF0C7544DD
:10119000AB1C9EC2685000FED00A6444AA1CD31245
:1011A00025FED11189C57D206754D2441D722019B6
:1011B0008604FED20F7AC57D2067899534A94EC377
:1011C00022FED30D84C4AA1C9392641B1200FED489
:1011D0000C75C4AA9C2025D13208FED50F87B44BCC
:1011E0001D15236D4845658800FED61088344C9D3A
:1011F0002027B5A438A4D12001FED70D84C49A3A83
:101200002425C9362400FED80C75C49A3A2C25D161
:101210003208FED90D8645DC92528BBA0E0B00FEC9
:10122000DA108745DC3853B2288BB2284E0625FEEB
:10123000DB0B75C33A454B8BC904FEDC0B76443B94
:10124000498CABCA14FEDD0C973CECCEAA351914C0
:1012500000FEDE14A834EC1CC8811CC8811C48D2D6
:10126000241DA54102FEDF0983C3A93E2D00FEE037
:101270000983C499A82F03FEE10C85352B291A8612
:10128000B02300FEE20E67358C418AA4CA24C53122
:1012900000FEE30935C4BA481906FEE40A36442BB9
:1012A0002D4A1225FEE50E67B4BB1C2926A9180D90
:1012B0001100FEE60D67B4BB1C0B93548C8608FE30
:1012C000E70A63449A1C8A1600FEE80A54C3A91C64
:1012D000C89221FEE90A444D1B25920601FEEA0B45
:1012E0006545AB309A2A431AFEEB0C56CC2B2D9158
:1012F00092CA6108FEEC0E75ACAA2C899228499618
:101300003605FEED0B64B51AA534454A06FEEE0D12
:10131000752DAB2C89926C8BA410FEEF0D67345C9D
:1013200031CA94704D0605FEF00C48349C381CD22E
:10133000689000FEF10E772C5C31CA94704D064D1A
:1013400003FEF20D68249C381CD268D05111FEF3C4
:1013500009533CAA684C02FEF40A54B3A92C195252
:1013600005FEF50F86CC8B294DB2A85B924D12007D
:10137000FEF61297C48B298EB25216854998844A7C
:101380001402FEF70FA6C49B3096D2A86F49A6653B
:1013900000FEF814A7BC9B584AC2282B65519884BC
:1013A00049A8442100FEF90DB4AE3BC929A9D8A231
:1013B0004C02FEFA14C525BB244AA224AA4449942F
:1013C000448A2AA51200FEFB0C84C63BC929A92821
:1013D0001900FEFC11953DBB244AA224AA4449945D
:1013E000448A0800001200020203030203040408F6
:1013F00000FE05FE06FF000000000083200480546C
:101400002A069B6752072B07DBEDD24A002C069A6F
:101410005A94022D058B66062E058954022F08B3B7
:1014200063AB9862043007ABE42AAB023106AADC56
:1014300056033208ACEC546C8E003309AC6C364A5F
:101440001A8D043408AC6CA29936083509AC6C8648
:10145000061B8D043609ACEC54062B26053708AC68
:101460006C4606B10D3809ACEC544C2A26053909F6
:10147000ACEC544C1B24053A06D95C520000000029
:1014800004FFFF0000870003020505040506101095
:1014900000FE0AFE0BFF0197033004FC200600A0AB
:1014A00047012108413144714804220885284691AA
:1014B000B905230F462544D5D3302451CB30443DC4
:1014C000012412472544170E4A1449E13C4652654F
:1014D0001033002514472544A34949298994344EE3
:1014E0001329899292A6002612472544B595B24A3F
:1014F000282691968849264D0127078130463104D8
:10150000280C83ED43954449D45B9405290D83E968
:1015100043914559D44B9444002A0DE7644457AA9B
:10152000B46D49532D032B0CE7644417D786218BE8
:101530006B002C0982AC43A1240A002D0724284506
:1015400031042E07422C4431042F0C4625445BAC59
:101550008669584D01300E462544A54549E8631279
:10156000651200310B452944954949D8A741320FEE
:101570004625443324A198665A584D8701331046B6
:1015800025443324A19846732A8AC9900034104612
:101590002544196A4954C9922C19C6B402350F461C
:1015A00025447148AB839CA662322400360F462541
:1015B000443585693A28A163322400370B46254417
:1015C000712DA6C5B40938104625443324A131191C
:1015D00092D031191200390E4625443324A1311915
:1015E000D4C668023A09E26C4431C443003B0A2283
:1015F000ED4331C44AA2003C092529449975ED0008
:101600003D09A6A44471270E033E09252544917681
:10161000EB083F0F4625443324A19886D51C4C2364
:10162000004012462544356552A2244BA4444A2466
:101630002DF110410E462544A5452DA1380CA2637D
:1016400000420E4625443128A1715842C76101432A
:101650000E4625443324A1B5A3980C0900440E4638
:10166000254431445912FA2D192200450D462544CE
:101670007148AB8392B60E03460C4625447148ABC5
:1016800083927605470E4625443324A1B53484362B
:101690006509480B462544113A0E83E831490B454C
:1016A00029443148613F0D024A0E4725443588716F
:1016B0004F5994651B004B11462544116A4954C982
:1016C0004431C9A25A12064C0946254491F6D76105
:1016D0004D0D462544118AD3102D1E1D034E104674
:1016E0002544116E9B122991944889760C4F0C4623
:1016F00025443324A13F264302500D46254431287A
:10170000A17158D2AE00511767E5433344611226E8
:10171000611226611226899248D290030252104625
:1017200025443128A17158A25A9225A118530D467B
:1017300025443324A1D9514C8604540A47254471C9
:10174000C8E2FE06550B46254411FAC76448005608
:1017500011472544915A932CCAA2AC1226699C01C8
:10176000570D462544117A719986681403580F461F
:101770002544118A49D4266A514B2806590E47251B
:101780004491AA4916659534EE065A0B46254471D4
:101790002DF69A0E035B0A83F1433144FDD3005CBE
:1017A0000C46254491C6D5388DAB015D0A83E543CF
:1017B00031F54F43005E09666446A54549185F0749
:1017C00027E4437108600763A8469115610E06255A
:1017D000443324619A0CA34D5902620E662544914C
:1017E000B62C9AE8B8290B00630D0625443324A1D2
:1017F000DA31191200640C662544DBB268A3376540
:1018000009650F0625443324A1380C6A31191200EA
:10181000660C6525442785A5410A7B02671366A5EA
:10182000439B2C5A922559B4A543128AC99000684B
:101830000C66254491B62C9AE86300690B6529442F
:1018400015E688D8A7416A0CA5A5435947C43E4A66
:1018500091046B1166254491B625512513932CAA4A
:101860002561006C0A65294423F64F83006D120739
:101870002544B12851244552244552244552016E35
:101880000B062544912C9AE863006F0C062544331F
:1018900024A18FC99000700E46A543912C9AE8B8F8
:1018A000294B9A02710C46A543B368A33765490BCF
:1018B000720B062544912C9AA87605730D062544D3
:1018C0003324A1EC980C0900740B452544159606A9
:1018D00029EC2A750A06254411FA4D5902760C06A0
:1018E0002544111A93A83751027711072544914ACC
:1018F0009114499114499154B100780F062544116F
:101900008A4994895A94846200790E46A543117AD3
:101910004C224B5A1912007A0A062544710D7B1D80
:10192000067B0E83ED433365511265511265027CCF
:1019300007C1B143F1417D0F83E943A14549944576
:101940004994450B007E0A672446A34991A6007F6F
:101950002310A28391F43B49E7A4930E49362561F5
:101960001A2543924D49984E4332EC9C744E3A29C5
:10197000E907802410A28391F43B49E7A4933669D8
:1019800099922889A243120D619444C52859744E36
:101990003A279D94F40300000004FFFF4E0A20EF55
:1019A000E1839D1372424EC8093921271C722427F6
:1019B000E4849C901372424EC891E1034E0B22EFD7
:1019C000A183F1734EC809392127443998E5589805
:1019D00043698EA439921372424EC80939024E0DE2
:1019E00024EEA183333CE4480EE7680EE7A8924357
:1019F0004994035196666116A6499ACA399CC3391F
:101A00001C034F112A0FA2835987C21C0A7324CDCD
:101A1000916438446A0E886B128E519694B3A41C5C
:101A2000B5265951ACA53992E6489A024F202C0FA1
:101A3000A2835987C21C0A73241A86B40E8839A25D
:101A40000C87A41847598E45C390E6489A95C3243D
:101A500007D21C8973200E015173260FA2839703AE
:101A60003910E7409A333CE8504EC80939F03B90B2
:101A7000C3498E263998E5501AEB80A4830251C6DB
:101A80002B0FA2830F24711AC5611467C339CB8150
:101A900044CB016518C4288BB372360CCA56CECA23
:101AA00059391B4E594EC81100538B27EFA183356E
:101AB0003C443921CD913447D21C497324190E5925
:101AC0009A23698EA4515A0BD3AC9C03C9F090138E
:101AD00053E31AABE983F11DD2211DD2211DD2217E
:101AE0001DD2211DD2A1E121870256682AEFA183D0
:101AF00035488356CA9AB26C90061D897230CB86DF
:101B0000CF498E997540D241699006AD943565D91B
:101B1000200D0A00571F21EFE1830FE4849C9013EE
:101B200072424EC8A1E1A043392127E4849C90135E
:101B300072420EFC0058E42D0FA28315E74034DCFE
:101B40007242B64C43943466CB584BA3E116666997
:101B500034DCB4DA321C94344A7244CB01A5944389
:101B6000A2005B9A260FA2839D5372647850725430
:101B70004773E270D0A19C9063752C1BD62CC7EAEA
:101B80005012E548361C74025E38280FA2830FE419
:101B9000583B105587072547B56188D23A92E6C869
:101BA00030E4608E0DE7AC9C95B3A49C4539980356
:101BB0005EA6250FA2830FE4941C191EA2AC9C956F
:101BC00087B7E6AC9C0D724E4886418DD2B096A682
:101BD0006BA8A93B305F0026EFA183333CA475249A
:101BE000CD913447D21C49C3E1639A23698EA4394D
:101BF00092E6409C03711D487324045F0225EFA107
:101C000083351CD21C4973241D0E698ED5B17038E2
:101C1000E8E43447D270F898E6405C07D21C09012A
:101C2000611F320FA2838F25391A65C34394037154
:101C3000322851960351960C4A31C92231C9A24A21
:101C40003428DD816C07D21CC891280BA372240EA6
:101C5000431463A52D0FA28317E6509A23D1308831
:101C600039382C611A4671321CB23447C41C508674
:101C700097304BB3300DA33855934C12233901657F
:101C8000F6290EA6830FE67034C85116475932DC88
:101C9000E2288BA3418EB2288BB252AD548BA34164
:101CA0008EB23807931CCD0068212B0FA28397E6D4
:101CB000489C03710E64C3838E8659A8A5D99203EC
:101CC00049535609B3A89AC46912D7813489C32CE1
:101CD0008D54016C342B0FA2830FE4849C9013C2AB
:101CE0001C0AB3419172245172244A72A89223595A
:101CF00094035935ACA5E99CA3490EE708006CF59F
:101D000026EFA183F16B0EE7F0704DE24C8A73E091
:101D1000A06339218D06458BA3A49C457198495A2F
:101D200092CA39026D472B0FA2838FE4489A436110
:101D30003284D190E6483147A236A59A88624E484F
:101D40008687344A4B699845C52CAAA56B0E016E4F
:101D5000052D0FA28315E7489A23C970C7D27418BE
:101D6000B21C88A3E120E670340C6994968621DACF
:101D7000D2301B86304BC3AC922361066E7F2ACFD4
:101D8000E183150D839AC4691247E13068E5AC9C84
:101D900026C3A066511C46E112B54549948499A416
:101DA00086519C0C07017518150EA68317F7DBF0FA
:101DB000A0C5FD3C0C727F1E06B9067535230DAA21
:101DC000839BA3399A030F52580A4B6169384861C3
:101DD000292C85A5E1208595344EE37818027720DB
:101DE00030EEA5833D0CC9A0A44996A44996A4C988
:101DF000A00C439225519825513828C32D89C22C17
:101E000089C22CC9B241C9222D2925B128177FFBCF
:101E10002C0EA283B90343B60C515BD2960D97A644
:101E20004D52DA3235CA92418B9426A52F52326830
:101E300095B64A5B65507A8BB2048349220FA28320
:101E40009BE55875F89AE54CC33907E2E19C03F12C
:101E500070C772E0772027E4849C90038BBE28EF44
:101E6000A183150E7256CEEA581D4A8721C9D16842
:101E700018D22C4CB37218C54994E480982361920F
:101E800063661D108D852F0FA2839913A26148C32D
:101E90002C1AA62C0DB3348B926418C4381BB624AC
:101EA0000BB3240BB36409B3241BB62407131D8C96
:101EB0008677028F6C2E0FA2839503710EC43910A2
:101EC0000ECB304439922669291ABEE5489843D989
:101ED00030843B900C61564993B80EE4409C031942
:101EE000009178350FA2830F66C310A6491A2761A7
:101EF000960C43320C4A5B12254D59D23725D986B0
:101F0000448CB2248DB2641892A634CCD22C89862B
:101F100021CA9234490395F4250DA68393C3D13089
:101F20004839A483DAA06935ADA6D5B441D36A5A3D
:101F30004DAB6983A6833A94E85802965030EEA5DB
:101F4000833124C31055D22889D228898621D2D240
:101F50002889D2A8320C5125CA9228894A4A4D4B69
:101F6000A22C6C0B932C0AD531470096642CEEA55D
:101F70008331846914A64998844956D3D228A90C80
:101F8000CA14A6519846C930284A982659520BA31C
:101F9000B69634C9923806000000000000240027DD
:101FA000002A0000000000250028002B000000008F
:101FB000002300260029000404040404040404028D
:101FC00002020202020303030303030102040810D6
:101FD00020408001020408102001020408102000A3
:101FE00000000800020100000304070000000000D8
:101FF000000000005C2B11241FBECFEFD8E0DEBF35
:10200000CDBF12E0A0E0B1E0EAEBFDE502C0059033
:102010000D92A639B107D9F728E0A6E9B2E001C0D0
:102020001D92A834B207E1F71FE0CBEFDFE004C058
:102030002197FE010E94CE2ECA3FD107C9F70E9408
:102040000B260C94DB2E0C940000809192038F5F82
:1020500080939203809193039091940301969093BF
:1020600094038093930390919203809106018917C2
:1020700030F481E0809391038AE080939203089585
:102080001092A4031092A303A8950895CF92DF9213
:10209000EF92FF920F931F93CF93DF936C01EB01AD
:1020A0007B01E40EF51E00E010E0CE15DF0561F0C7
:1020B0006991D601ED91FC910190F081E02DC6016E
:1020C0000995080F191FF1CFC801DF91CF911F911A
:1020D0000F91FF90EF90DF90CF900895089580E0EA
:1020E00090E00895CF93DF93EC01862F683109F4D7
:1020F0005FC060F4B901843181F0873109F0CEC04E
:1021000050E08FEA93E00E94511A50C0693109F4FF
:1021100072C0603209F44AC0C1C08C859D85AE850D
:10212000BF85892B8A2B8B2B71F4E881F981A585DA
:10213000B0E020EA36E841E050E00E94472C6C878E
:102140007D878E879F871092F2021092F102109283
:10215000F4021092F3021092FA0281E08093FC02E2
:102160001092FB0261E082E10E94052561E083E1BB
:102170000E9405258091B9008E7F8093B9008091DF
:10218000B9008D7F8093B90088E48093B80085E41E
:102190008093BC0083E29AE19093F6028093F5026B
:1021A00084E29AE19093F8028093F70281E077C08D
:1021B0002C853D854E855F8560E074E284EF90E07C
:1021C0000E945A2CDA01C9014097A109B109B695BC
:1021D000A795979587958093B8008E8990E09595FF
:1021E000879591E09093F0028093CF021092F402D1
:1021F0001092F302DBCF2091F302213208F047C0A6
:102200008091FA028111FCCF8091CF0292E09093ED
:10221000FA0291E09093FC029FEF9093F9021092E2
:102220001E0320931D03E0EDF2E0ADEFB2E090E07D
:10223000291721F031913D939F5FFACF10921F0330
:1022400090911F03880F892B80931F038091FB02BD
:10225000813061F41092FB0280911F038093BB00D8
:102260008091BC0083FDF8CF85EC01C085EE8093A2
:10227000BC008091FA028230E1F38091F9028F3F35
:1022800031F08091F902803211F08091F9021092C0
:10229000F4021092F3021092F00288CF80E0DF91F6
:1022A000CF9108950F931F93CF93DF93EC01862F67
:1022B000642F8C3270F48A3208F05DC0883289F065
:1022C000893209F042C070E080E090E00E948725EA
:1022D00052C08D32D1F0C8F194EB980F923020F1BA
:1022E00034C08E01015E1F4FD0E0F80181918F0153
:1022F0008F3F39F0D03110F461E001C062E00E94FC
:102300003425DF5FD63189F736C0433018F082E0DC
:1023100090E002C085E090E0880F991F880F991F18
:1023200005970197F1F727C08F73C80FD11D411191
:1023300007C061E08F8D0E94342560E08F8D11C051
:1023400062E08F8D0E94342516C08034B0F0982F43
:102350009F73FE01E90FF11D878D8F3F61F0903172
:1023600018F40E94052507C00E94DC2421E0892B77
:1023700009F420E02A8F81E001C080E0DF91CF9155
:102380001F910F910895DF92EF92FF920F931F9389
:10239000CF93DF930DE314E0EE24E394F801E082A1
:1023A000CEE3D4E08EE0D82ED8828DE991E00E9471
:1023B000342296E6F92EF801F082D88280910B0142
:1023C00090910C010E946923F801E0822EE1D22E47
:1023D000D8828BEA91E00E943422F801F082D88200
:1023E0008091090190910A010E946923F801E0821D
:1023F0003EE2D32ED88288EB91E00E943422F8018D
:10240000F082D88280910701909108010E9469238F
:10241000F801E0824EE3E42EE88285EC91E00E9430
:102420003422F801F082E8828091980390E00E94C3
:10243000392385E7F8018083E8828091970390E053
:10244000DF91CF911F910F91FF90EF90DF900C944F
:1024500039238FEB93E00E94F5210E94C3118FEB8B
:1024600093E00E94D0218111F8CF0895DF92EF927E
:10247000FF920F931F93CF93DF930DE314E0EE24AD
:10248000E394F801E082CEE3D4E08EE0D82ED88247
:1024900082ED91E00E94342296E6F92EF801F08256
:1024A000D8828091110190E00E943923F801E082E6
:1024B0002EE1D22ED88283EE91E00E943422F801E0
:1024C000F082D8826091060170E080E090E04AE0FE
:1024D0000E94F822F801E0823EE2D32ED88280EFFB
:1024E00091E00E943422F801F082D8828091960314
:1024F00090E00E943923F801E0824EE3E42EE88266
:1025000083E092E00E943422F801F082E882609138
:10251000050170E080E090E04AE0DF91CF911F91EB
:102520000F91FF90EF90DF900C94F8228FEB93E0E7
:102530000E94F5210E9436128FEB93E00E94D02179
:102540008111F8CF08952F923F924F925F926F9230
:102550007F928F929F92AF92BF92CF92DF92EF9233
:10256000FF920F931F93CF93DF93EC016C0124E054
:10257000C20ED11CFC01E058FF4F0190F081E02D0C
:10258000C60109957C018EEFE8168FEFF80608F07A
:1025900075C1FE01ED57FF4F10814E0192E8890E83
:1025A000911CF4010081B29780818130C9F070F0F4
:1025B000823001F1833039F5FE01EE5AFF4F019070
:1025C000F081E02DC6010995080F1DC0FE01EE5AED
:1025D000FF4F0190F081E02DC6010995180F13C03F
:1025E000FE01EE5AFF4F0190F081E02DC6010995E2
:1025F000081B09C0FE01EE5AFF4F0190F081E02D4B
:10260000C6010995181BFE01EA5AFF4F0083319657
:1026100010833797808191814796FFEFEF16F10481
:1026200009F040F521E6E216F10420F0FE01EC5835
:10263000FF4F07C0E1E4EE16F10438F0FE01EE585A
:10264000FF4F20813181820F931F9C012F5F3F4FED
:10265000F9014491442309F40FC1FC01449150E075
:10266000E416F50611F4029634C0F9012491820FA4
:10267000911DEBCFFE01EA58FF4FA080B180A80E5C
:10268000B91E850160E0C5010E94A420080F191F32
:1026900062E0C5010E94A420F4E0AF0EB11C8E15CB
:1026A0009F0580F3F801849190E0982F8827319658
:1026B000E4918E2B009709F4DFC0E816F90619F4AF
:1026C000C801039606C0F8013296E4910E0F111D61
:1026D000E9CF009709F4D0C07E01F4E5EF0EF11CBC
:1026E000F70191838083108671966081C7010E94F3
:1026F000C420F701868372966081C7010E94C420BE
:10270000782EF70187835E01FEE7AF0EB11CF5015D
:102710009081F701928781E0911180E0F701838732
:10272000FE01E959FF4F1081612FC7010E94C420AB
:102730009FEF910F01E010E0980101C0220F9A95E0
:10274000EAF7382E321AFE01E859FF4F6080662DF5
:10275000C7010E94C4206A94280101C0440C6A94F5
:10276000EAF7282E270CFE01E759FF4F6080662DFF
:10277000C7010E94C4206A9401C0000F6A94EAF75E
:10278000682E601AF701068110160CF070C0548490
:102790004218252D442D632D82810E948A20182FF6
:1027A000F7018283252D442D632D83810E9497207C
:1027B000F7018383F1E05F16B1F05F1678F022E055
:1027C0005216B9F093E059121FC0212F270D982FF0
:1027D000901B01E0080F81E0890F18C0202F210F06
:1027E000082F070D13C0571821E0210F080F150DF2
:1027F0000DC091E0392F301B21E0210F971901E026
:10280000080F890F130F02C0082F212F482F612FA7
:10281000C6010E948A1F882351F1F7011482158294
:102820008E010D591F4FCC59DF4FF8016081C70150
:102830000E94C420482E6881C7010E94C420582EDF
:1028400040E0642DC6010E94F12041E0652DC601E3
:102850000E94F12061E0C7010E94C4208111F0CFE5
:10286000F701858187150CF38285F5018083F401DA
:102870008081680E608202C0612CF9CF81E090E017
:10288000DF91CF911F910F91FF90EF90DF90CF904C
:10289000BF90AF909F908F907F906F905F904F9080
:1028A0003F902F9008952F923F924F925F926F9298
:1028B0007F928F929F92AF92BF92CF92DF92EF92D0
:1028C000FF920F931F93CF93DF938FEB93E00E94C0
:1028D000F521D7E18FE0982E1CE190E6B92E2EE786
:1028E000222E36E7332E46E6A42ECDE159E6852E7C
:1028F000809198038111AAC0809197038111A6C08D
:1029000010923D0490923E0488E692E00E943422A8
:102910002091A0033091A103C901885691408B3FBB
:102920009105E0F4C901A0E0B0E09C01AD0128569A
:10293000314041095109A2ECBFEF0E94552C2AEF0A
:1029400030E040E050E00E94282CDA01C901CF9627
:10295000A11DB11D9093CE028093CD020EE121E422
:1029600045E160E08FEB93E00E948A1F882391F19C
:1029700042E067E182E00E948E2441E067E18EE35D
:102980000E948E2444E06BE182E00E948E2448E0A5
:102990006BE18EE30E948E2400E02BE345E163E0CF
:1029A0008FEB93E00E941B202BE34DE163E08FEB64
:1029B00093E00E941B2001E023E048E160E08FEB00
:1029C00093E00E941B2023E048E160E48FEB93E05A
:1029D0000E941B2027E04091CD0266E181E00E9429
:1029E000B72385EE93E10E94362282E00E94B12354
:1029F00010933D0410933E048091A0039091A10395
:102A00000E946923D0933D0410933E0480E192E03C
:102A10000E94342281E00E94B12380E994E00E9468
:102A20003622809192038A3020F48CE680933D0414
:102A3000A9C1809192038A3008F44EC1809192031B
:102A4000843608F049C180923D049CC1809198036E
:102A5000882389F022E24FE760E080E00E94B723FC
:102A600088E080933D04D0933E0480E00E94B1232F
:102A700089E192E014C0809197038823A9F022E2B3
:102A80004FE760E080E00E94B72390E290933D041E
:102A9000D0933E0480E00E94B1238FE292E00E9436
:102AA000342281E00E94B1238AE790E00E9436221E
:102AB00010923D040BE200933E048CE392E00E94EE
:102AC000342284E180933D0400933E04C090C6020A
:102AD000D090C702E090C802F090C902A701960109
:102AE000C701B6010E94C92E882319F080E492E044
:102AF0001AC026013701E89477F82FEF3FEF4FE730
:102B00005FE7C301B2010E94C92E81110FC02FEFF0
:102B10003FEF4FE75FE7C301B2010E94F82C1816A0
:102B20002CF484E492E00E94222272C02FEF3FEF47
:102B30004FE75FE4C701B6010E94572E18161CF438
:102B400088E492E0F0CF2FEF3FEF4FE75FECC70153
:102B5000B6010E94F82C87FDF3CF20E030E0A901F8
:102B6000C701B6010E94F82C87FF09C06DE28BEB0C
:102B700093E00E94A312F7FAF094F7F8F0942AE099
:102B800037ED43EA5BE3C701B6010E948C2C2B01B1
:102B90003C010E94762D6B017C010E94A52D9B01BA
:102BA000AC01C301B2010E948B2C2B013C014AE015
:102BB000C701B6010E94F8226EE28BEB93E00E94FF
:102BC000A31220E030E040E251E4C301B2010E94D0
:102BD0005C2E2B013C010E94762D6B017C01CB0108
:102BE0000E946923B60180E090E00E94A52D9B0120
:102BF000AC01C301B2010E948B2C20E030E040E226
:102C000051E40E945C2E0E94762DCB010E94692324
:102C10008091A203882349F087E680933D048BE2EC
:102C200080933E048CE492E007C0A0923D048BE2C6
:102C300080933E048FE492E00E94342280910F0141
:102C4000811112C02091C5022B5F2093C50200E0C4
:102C50004CE260E08FEB93E00E941B208091C50264
:102C6000893210F01092C50285E894E10E94362264
:102C700081E080933D040DE300933E0483E592E000
:102C80000E94342280E380933D0400933E048AE551
:102C900092E00E943422B0923D0400933E0481E60B
:102CA00092E00E9434228FEB93E00E94D0218111A8
:102CB0001FCEDF91CF911F910F91FF90EF90DF908A
:102CC000CF90BF90AF909F908F907F906F905F90CC
:102CD0004F903F902F90089580919203843628F072
:102CE00080919203883C08F44BC085E894E10E94EF
:102CF0003622B0923D0490923E0482E192E00E941E
:102D00003422B0923D048FE180933E04809195037C
:102D1000882309F4C9CE8091CC028A3058F464E744
:102D2000680F84590E9478248091CC028F5F809331
:102D3000CC02BACE8091CB02863148F48F5F80936B
:102D4000CB02622D681B932D981B892F0BC080919D
:102D5000CA028C3050F491E0980F9093CA0269E651
:102D6000680F8F590E9478249FCE64E78CE60E94FA
:102D700078241092CC021092CB021092CA0294CE08
:102D8000A0923D04C0933E048091930390919403DC
:102D90000E946923AACFAF92BF92DF92EF92FF9277
:102DA0000F931F93CF93DF93EC017B018B015C01A9
:102DB00082E0A80EB11CF801D1908F01CE010E94D3
:102DC000122CD81621F06D2DCE010E941A2C2196BE
:102DD000CA15DB0581F7C701DF91CF911F910F91D4
:102DE000FF90EF90DF90BF90AF9008951F93CF9327
:102DF000DF93EC01162F0E94122C181739F0612F67
:102E0000CE01DF91CF911F910C941A2CDF91CF91BD
:102E10001F9108958F929F92AF92BF92CF92DF92AF
:102E2000EF92FF920F931F93CF93DF938EE00E9458
:102E300070259093C4028093C3020091C102109147
:102E4000C2028017910774F08EE00E947025909363
:102E5000C4028093C3028017910774F081E08093CD
:102E6000C0020CC08EE00E9470259093C402809333
:102E7000C3028017910794F31092C0028091C002A0
:102E8000C091C302D091C402882389F18091BF020E
:102E900091E0980F9093BF029E01201B310B37FFEA
:102EA00003C0319521953109263031051CF08D5F25
:102EB0008093BF028091BF02853138F12DEC3CEC4C
:102EC0004CEC5DE36091BB027091BC028091BD024D
:102ED0009091BE020E948C2C6093BB027093BC0246
:102EE0008093BD029093BE021092BF020EC010925A
:102EF000BF028AE097EDA3E2BCE38093BB0290930C
:102F0000BC02A093BD02B093BE02C090BB02D090A1
:102F1000BC02E090BD02F090BE026091C1027091CF
:102F2000C202072E000C880B990B0E94A72D4B01A3
:102F30005C01A701960160E070E080E89FE30E94D9
:102F40008B2C9B01AC01C501B4010E945C2E4B018E
:102F50005C01BE01DD0F880B990B0E94A72DA70114
:102F600096010E945C2E9B01AC01C501B4010E9438
:102F70008C2C0E946F2D683E23E072072CF4709316
:102F8000C2026093C10215C01092C2021092C10227
:102F90001092C4021092C3021092BB021092BC02A3
:102FA0001092BD021092BE021092BF0281E0809387
:102FB00098038091C1029091C202DF91CF911F913D
:102FC0000F91FF90EF90DF90CF90BF90AF909F90C8
:102FD0008F900895CF92DF92EF92FF92CF93CAE045
:102FE000C12CD12C760181E10E9470252091050130
:102FF000820F911DBC01990F880B990B0E94A72D80
:103000009B01AC01C701B6010E948C2C6B017C01B5
:10301000C15049F720E030E040E251E40E94FD2C2D
:103020002AE038E240EA5BE30E945C2E6093C6022D
:103030007093C7028093C8029093C902CF91FF900A
:10304000EF90DF90CF90089580911101882359F07F
:1030500061E08CE00E9405250E940A179093A1036D
:103060008093A003089560E08CE00E9405251092F3
:10307000A1031092A0031092950308958091A203DA
:10308000882371F080919603811103C060919503AC
:1030900008C060E086E00E9405256091950305C0A8
:1030A00060E086E00E94052560E085E00C9405253F
:1030B000CF9380910E01882309F447C080919F032C
:1030C000811103C0CF910C945314813099F48FEB8C
:1030D00093E00E94F5210E94531422E141E26EE246
:1030E00080E00E946F238FEB93E00E94D02181113A
:1030F000F2CF0FC1823099F48FEB93E00E94F5215B
:103100000E94531422E141E26EE28FE20E946F239B
:103110008FEB93E00E94D0218111F2CFFAC083306F
:1031200009F0F7C08FEB93E00E94F5210E94531441
:1031300022E141E26EE28FE50E946F238FEB93E084
:103140000E94D0218111F2CFE4C080919E03882398
:1031500009F4DFC080910D01811103C0CF910C945F
:1031600029128130D1F48FEB93E00E94F5218091F8
:103170009D03811103C00E94291202C00E94C31145
:1031800021E14FE760E080E00E946F238FEB93E046
:103190000E94D0218111EBCFBCC08230D1F48FEBE3
:1031A00093E00E94F52180919C03811103C00E944D
:1031B000291202C00E94C31121E14FE760E180E0C3
:1031C0000E946F238FEB93E00E94D0218111EBCFFF
:1031D000A0C08330D1F48FEB93E00E94F521809161
:1031E0009B03811103C00E94291202C00E94C311D7
:1031F00021E14FE760E280E00E946F238FEB93E0D4
:103200000E94D0218111EBCF84C0843099F48FEBE0
:1032100093E00E94F5210E94291220E14FE760E32C
:1032200080E00E946F238FEB93E00E94D0218111F8
:10323000F2CF6FC08530D1F48FEB93E00E94F5217F
:10324000C0917801C11103C00E94961202C00E9471
:10325000361221E14FE760E080E00E946F238FEBA0
:1032600093E00E94D0218111EDCF53C08630D1F47C
:103270008FEB93E00E94F52180919A03811103C0A6
:103280000E94961202C00E94361221E14FE760E1CF
:1032900080E00E946F238FEB93E00E94D021811188
:1032A000EBCF37C08730D1F48FEB93E00E94F5214C
:1032B000C0917801C11103C00E94961202C00E9401
:1032C000361221E14FE760E280E00E946F238FEB2E
:1032D00093E00E94D0218111EDCF1BC08830C9F44A
:1032E0008FEB93E00E94F52180919903811103C037
:1032F0000E94961202C00E94361220E14FE760E35E
:1033000080E00E946F238FEB93E00E94D021811117
:10331000EBCFCF9108951F920F920FB60F92112409
:103320002F933F934F935F936F937F938F939F93CD
:103330008091A3039091A40301969093A40380939A
:10334000A3038091A3039091A4036091070170915E
:10335000080142EC51E0649F9001659F300D749F1D
:10336000300D11248217930720F01092A4031092BD
:10337000A3039F918F917F916F915F914F913F91A7
:103380002F910F900FBE0F901F9018950895CF9218
:10339000DF92EF92FF920F931F93CF93DF936C0115
:1033A0007A018B01C0E0D0E0CE15DF0581F0D801B5
:1033B0006D918D01D601ED91FC910190F081E02D90
:1033C000C6010995892B11F02196EECF7E01C70128
:1033D000DF91CF911F910F91FF90EF90DF90CF90F1
:1033E000089585ED8093BC008091BC0084FDFCCFE6
:1033F0001092FA02089540916103262F30E0240FC5
:10340000311D21323105DCF42091FA022430C9F457
:10341000FC0180E090E0861758F43091610321911F
:10342000DC01AF5BBC4FA30FB11D2C930196F3CF12
:1034300080916103680F6093610380E0089581E0EB
:10344000089582E00895089508950895E091F202A4
:103450008091F102E81730F4F0E0EF5DFC4F8081DD
:1034600090E008958FEF9FEF08959091F202809180
:10347000F102981750F4E92FF0E0EF5DFC4F208146
:1034800030E09F5F9093F20202C02FEF3FEFC9013F
:1034900008958091F10290E02091F202821B91093F
:1034A0000895CF92DF92EF92FF920F931F93CF93E5
:1034B000DF937C01CB018A012091F002222389F065
:1034C000EB016B01C40ED51ECC15DD0569F06991C9
:1034D000D701ED91FC910190F081E02DC701099594
:1034E000F3CF642F0E94FB19C801DF91CF911F9188
:1034F0000F91FF90EF90DF90CF900895CF93DF93DF
:103500001F92CDB7DEB769832091F0022223D1F05C
:103510002091F302203240F021E030E0FC013383BF
:10352000228380E090E015C08091F402E82FF0E063
:10353000E053FD4F998190838F5F8093F4028093D5
:10354000F30205C061E0CE0101960E94FB1981E003
:1035500090E00F90DF91CF91089580E00895DC0115
:103560001A96ED91FC911B9720E030E00994DC0164
:103570001696ED91FC91179720E030E040E069E16C
:103580000994DC011696ED91FC91179720E030E04C
:1035900040E068E109949A01DC011696ED91FC91F6
:1035A0001797462F67E10994EF92FF920F931F93AD
:1035B000CF93DF931F92CDB7DEB77C018B01D8018B
:1035C0006C916731E1F078F46531A0F1F801418147
:1035D0004983D7011696ED91FC91179720E030E0D2
:1035E000C701099524C06A31A8F06E3F19F5F801AA
:1035F0004181498369E2C7010E94AF1A18C0F801EE
:1036000081818983AE014F5F5F4F61E0C7010E94F6
:10361000CB1A0DC00F5F1F4FD7011696ED91FC918D
:10362000179720E030E040E0C7010995C8CF0E5F52
:103630001F4FC5CF0F90DF91CF911F910F91FF903A
:10364000EF900895462FDC011696ED91FC911797A7
:1036500020E030E066E10994462FDC011696ED91FA
:10366000FC91179720E030E065E10994EF92FF921A
:103670000F931F93CF93DF93EC01142F79016D30DB
:10368000A9F118F46B3039F15FC06E3009F441C014
:103690006F3009F059C00E94C11AF70183810C896B
:1036A000F8E08F9F000D112460E4CE010E942C1BD6
:1036B000602F62956F706061CE010E942C1B602F9D
:1036C0006F70CE010E94221BF7016481606BCE01F6
:1036D0000E94221B29C0411103C066E271E002C0B2
:1036E00061E271E0CE010E94D41A71C0411108C09C
:1036F0006AE171E00E94D41AE881F981828907C0E9
:1037000063E171E00E94D41AE881F98183898C8B8E
:103710005EC00E94C11A61E8CE010E942C1B612F7D
:10372000CE010E94221B0CC0F701408151816281B1
:10373000660F660F660FCE010E94CB1A1150A1F7DB
:10374000CE010E94B71A43C0693031F480E691E09F
:10375000998388831C8A3BC06A30B9F5EA85FB856A
:1037600020E030E040E068E2CE010995EE81FF8183
:1037700020E030E040E064E1CE01099541E06BE4F7
:10378000CE010E94AF1AE881F981448169E2CE013D
:103790000E94AF1A40E06BE4CE010E94AF1AE881AC
:1037A000F981448169E2CE010E94AF1A41E06BE4E5
:1037B000CE010E94AF1AE881F981458169E2CE010C
:1037C0000E94AF1A6BE271E08DCF80E001C081E012
:1037D000DF91CF911F910F91FF90EF900895DC0141
:1037E0001896ED91FC91199720E030E040E069E1F6
:1037F0000994DC011896ED91FC91199720E030E0D6
:1038000040E068E10994FC016623D9F16A30C9F10E
:10381000818D811124C06C3F20F085E0818F617023
:103820001AC0683F20F084E0818F637014C0603F4D
:1038300020F083E0818F67700EC0603E20F082E050
:10384000818F6F7008C0603C20F081E0818F6F71C4
:1038500002C070E01BC070E0738B628B15C081509A
:10386000818F2289338996E0220F331F9A95E1F7E1
:103870006F73A901462BBA01738B628B811104C04F
:1038800005C06FEF7FEF02C06EEF7FEFCB010895B1
:10389000662329F06A3019F0862F90E008958FEFA3
:1038A0009FEF08950F93DC01DF963C91DF97431B58
:1038B000D596ED91FC91D69709950F910895CF93E8
:1038C000DF93FC01A081B18193AD892F880F880F10
:1038D000880F86AF50968C915097803208F08FE118
:1038E000880F880F880F85AF24AD822F880F880F2F
:1038F000880F87AF51963C915197422F50E0490F66
:10390000511D632F70E06417750714F4932F921BF9
:10391000EF01C05CDF4F8883219628E0929F800DE5
:1039200011248883219680EF888354968D919C91F1
:103930005597813F910508F48883ED5BFF4F5696BC
:103940008C918083DF91CF910895EF92FF920F9336
:103950001F93CF93DF93EC01742F7770E1E0F0E0D9
:10396000072E01C0EE0F0A94EAF73E2F7C018AE78A
:10397000E80EF11CD7018C91823028F41E2F813083
:1039800019F430E001C010E050E0487F89AD9AADF5
:10399000A881B9815096FC91F49FD001F59FB00D9C
:1039A0001124A60FB11DA80FB91F01110BC08C91D6
:1039B000812B83278D932150D1F71CC0110F330F1A
:1039C0002223C1F09C91912B93279C937F5F77706A
:1039D00021507111F3CF8DADA80FB11DF70180817A
:1039E000823020F4813021F031E002C031E0E8CFB4
:1039F00011E0E6CFDF91CF911F910F91FF90EF90F3
:103A0000089580E00895CF93DF931F92CDB7DEB77E
:103A10006983BE016F5F7F4F0E94D3240F90DF91B7
:103A2000CF910895EF92FF921F93CF93DF93EC0114
:103A3000162F7A010E94F91B60E4CE010E94031D3B
:103A4000E885F9859701412F67E1CE010995CE01FF
:103A5000DF91CF911F91FF90EF900C94EF1BEF92AD
:103A6000FF921F93CF93DF93EC01142F79016631FE
:103A700021F128F46431E9F1653149F056C068312B
:103A800009F44FC0F0F0693109F444C04EC0809190
:103A90002003882319F0CE010E94EF1BCE010E9463
:103AA000F91B60E0CE010E94031D612FCE010E9430
:103AB000031D81E08093200339C0642F0E94031D01
:103AC00032C080912003882319F0CE010E94EF1BA1
:103AD000A701193148F068E1CE010E94121D18516A
:103AE00088E1E80EF11CF4CF612FCE010E94121D77
:103AF00018C08E898F3F11F488E78E8BE885F98591
:103B00009701412F64E1CE01DF91CF911F91FF908A
:103B1000EF90099480912003882319F0CE010E9430
:103B2000EF1B1092200381E001C080E0DF91CF9174
:103B30001F91FF90EF9008951F920F920FB60F9272
:103B400011242F933F934F935F936F937F938F93A2
:103B50009F93AF93BF93EF93FF93E0910201F09196
:103B600003010995FF91EF91BF91AF919F918F91C3
:103B70007F916F915F914F913F912F910F900FBE69
:103B80000F901F9018951F920F920FB60F9211244D
:103B90002F933F934F935F936F937F938F939F9355
:103BA000AF93BF93EF93FF93E0910001F091010178
:103BB0000995FF91EF91BF91AF919F918F917F9167
:103BC0006F915F914F913F912F910F900FBE0F908A
:103BD0001F9018951F920F920FB60F9211242F93DA
:103BE0003F934F935F936F937F938F939F93AF9385
:103BF000BF93EF93FF9380918A0390918B038093FF
:103C0000B20080918D0390918E03A0918F03B091AB
:103C100090030196A11DB11D80938D0390938E0397
:103C2000A0938F03B093900380918D0390918E03A6
:103C3000A0918F03B0919003409186035091870328
:103C4000609188037091890384179507A607B707C9
:103C500010F180918C0381111EC081E080938C0350
:103C600080918D0390918E03A0918F03B09190036A
:103C7000841B950BA60BB70B80938D0390938E033B
:103C8000A0938F03B0939003E0918403F091850398
:103C9000099510928C03FF91EF91BF91AF919F9185
:103CA0008F917F916F915F914F913F912F910F90E5
:103CB0000FBE0F901F9018951F920F920FB60F9284
:103CC00011242F933F934F935F936F937F938F9321
:103CD0009F93AF93BF93EF93FF938091B900887F39
:103CE000803609F49CC068F5883209F45BC090F412
:103CF000803109F454C038F4882309F4F6C08830C0
:103D000009F44DC0F6C0883109F44CC0803209F482
:103D10005DC0EFC0803409F468C048F4803309F412
:103D200055C0883309F0E5C08093F902D8C08035CA
:103D300009F44FC0883509F45DC0883409F0D9C052
:103D4000D6C0883909F4C7C0A8F4883709F467C019
:103D500038F4883609F463C0803709F460C0C9C0FC
:103D6000883809F4B8C0803909F45FC0803809F098
:103D7000C0C05BC0803B09F486C038F4803A09F4C7
:103D800066C0883A09F47FC0B4C0803C09F4A7C07B
:103D9000883C09F4A4C0883B09F48AC0AAC0809179
:103DA0001F0310C090911E0380911D03981770F59A
:103DB000E0911E0381E08E0F80931E03F0E0E3503C
:103DC000FD4F80818093BB0085EC86C08093F90213
:103DD0008EC0E0911E0381E08E0F80931E038091C0
:103DE000BB00F0E0E350FD4F808390911E03809173
:103DF0001D036EC0E0911E0381E08E0F80931E03B1
:103E00008091BB00F0E0E350FD4F80838091FC0285
:103E100081116DC081E08093FB0284EA61C083E080
:103E20008093FA0210928303CFCF80918303803274
:103E300008F051C0E091830381E08E0F80938303EB
:103E40008091BB00F0E0ED59FC4F8083BDCF85EC45
:103E50008093BC001092FA0280918303803230F488
:103E6000E0918303F0E0ED59FC4F108260918303F1
:103E700070E0E091F702F091F80283E693E0099593
:103E80001092830336C084E08093FA02109262039A
:103E900010926103E091F502F091F602099580918C
:103EA0006103811105C081E0809361031092410399
:103EB000E091620381E08E0F80936203F0E0EF5B9C
:103EC000FC4F80818093BB009091620380916103DD
:103ED000981708F479CF85E88093BC000AC085EC78
:103EE0008093BC001092FA0204C01092F9020E9462
:103EF000F119FF91EF91BF91AF919F918F917F91B8
:103F00006F915F914F913F912F910F900FBE0F9046
:103F10001F9018950F93FC01EA5BFF4F308131969B
:103F20005081451728F4301730F0041720F010C0E6
:103F30003017D8F30DC0FC01EC5BFF4F3081319698
:103F40008081681738F4321740F081E0261730F08E
:103F500080E004C03217C8F3FBCF81E00F910895D1
:103F60002F923F924F925F926F927F928F929F9289
:103F7000AF92BF92CF92DF92EF92FF920F931F9377
:103F8000CF93DF93EC014C0184E4880E911CF40183
:103F90001082329720805E01F5E4AF0EB11CF5016E
:103FA0002082359730806E01F6E4CF0ED11CF601E9
:103FB0003082359740807E01F7E4EF0EF11CF70167
:103FC00040823496108132976080319670803297AB
:103FD0005080012F262D472D652DCE010E948A1F6E
:103FE000CC58DF4F811102C0188212C081E0888353
:103FF000552011F0F4015082621410F4F501608232
:10400000371410F4F6017082141510F4F7011083C0
:10401000DF91CF911F910F91FF90EF90DF90CF90A4
:10402000BF90AF909F908F907F906F905F904F90D8
:104030003F902F9008950F93DC01802FFD01EC58E5
:10404000FF4F9081992309F463C0222309F460C0D3
:10405000223048F0023019F46F5F621B04C0033055
:1040600011F44F5F421B082F0170FD0180FD25C038
:10407000EA5BFF4F8081481708F44AC0319680817F
:10408000481708F045C03297908131978081260FFC
:10409000261730F4691718F42FEF290F03C0682F83
:1040A0006917B0F58217A0F5681708F4682F29176B
:1040B00008F4922F292F261B22C0EC5BFF4F808132
:1040C000681730F131968081681710F5329690812B
:1040D00031978081240F241730F4491718F42FEFFB
:1040E000290F03C0482F491798F4821788F44817FE
:1040F00008F4482F291708F4922F292F241BD7964C
:10410000ED91FC91D8970480F581E02DCD010995C2
:104110000F910895213039F020F0223031F4861BC0
:104120000895860F0895841B0895840F0895213003
:1041300039F020F0223031F4841B0895840F089563
:10414000860F0895861B0895FC01E60FF11D8491EA
:1041500090E0982F88273196E4918E0F911D089555
:10416000FC01A081B18150969C9143AD949FA00128
:10417000112483E0440F551F8A95E1F760E070E059
:1041800081AD92AD0C94D42EDC0118964C91189709
:10419000ED91FC911197249130E0042E02C03595E9
:1041A00027950A94E2F7842F860F883010F4E22FC7
:1041B0000DC031961196FC93EE93E49198E0941B18
:1041C00001C0EE0F9A95EAF7E22B885018968C936F
:1041D00081E090E001C0880F6A95EAF781508E2354
:1041E00008955F926F927F928F929F92AF92BF924B
:1041F000CF92DF92EF92FF920F931F93CF93DF93B3
:104200005C01162F642EEC01C05BDF4FDC80ED807B
:104210004C018AE7880E911CFE80FD18CF2C1F15DB
:1042200008F4C12E5B800C85202F4E2D6D2D8A81C8
:104230000E948A20782E202F4E2D6D2D852D0E94D4
:104240009720482F662011F08A8504C08985811146
:1042500008C08B85F40180832C2D672DC5010E9439
:104260001B201F1520F01F19E394D12CD5CF1D0D55
:104270001C83ED82DF91CF911F910F91FF90EF9002
:10428000DF90CF90BF90AF909F908F907F906F9076
:104290005F900895462FDC011496ED91FC911597DF
:1042A00020E030E06BE00994CF93DF93EC016CAF3A
:1042B000EFA9F8AD0190F081E02D0995EFA9F8ADD7
:1042C0000280F381E02DCE01DF91CF910994DC01D2
:1042D0001496ED91FC91159720E030E040E060E10C
:1042E0000994AF92BF92CF92DF92EF92FF920F9319
:1042F0001F93CF93DF9300D000D01F92CDB7DEB7CE
:104300008C01DC01DB96AC90DB97DC96EC90DC97C3
:10431000ED91FC91B188FE2CC12CD12CD801ED91EE
:10432000FC9111978089D9964D915C91DA971C8206
:10433000FD828B83B8E08B9FC00111248C9D90017E
:104340008D9D300D9C9D300D1124CA01820F931F4D
:104350009A838983D8011496ED91FC9115979E015B
:104360002F5F3F4F41E06FE0C8010995F3948F2D17
:104370008E198A1528F4BFEFCB1ADB0AFB1470F2F2
:104380000F900F900F900F900F90DF91CF911F9192
:104390000F91FF90EF90DF90CF90BF90AF90089576
:1043A0001F93CF93DF93EC010E9471211CAD8BAD65
:1043B000180FE881F9818189181728F0CE010E9431
:1043C000672180E00EC0FE01E558FF4F8081882301
:1043D00019F0CE010E94B020612FCE010E9454211D
:1043E00081E0DF91CF911F910895CF93DF93EC018E
:1043F000FC01E558FF4F8081882319F0CE010E940F
:10440000B02060E0CE01DF91CF910C9454210F9346
:10441000909105046917A0F090910604691780F443
:1044200090910304891760F090910404891740F477
:10443000462F682F00E021E08FEB93E00E941B20C5
:104440000F910895009769F0FC0101900020E9F7B1
:104450003197AF01481B590BBC018BEB93E00C94D7
:10446000461080E090E008950C942222CF93DF93D1
:1044700020910B0430910C042817390709F4AAC0C5
:10448000EC0190930C0480930B04FC0184918093C5
:104490001C043196E491E0931D04FE013296E491F0
:1044A000E0931E04FE013396E491E0931F04FE01A5
:1044B0003496E491E0932004FE013596E491E09374
:1044C0002104FE013696E491E0932204FE01379622
:1044D000E491E0932304FE013896E491E0932404F0
:1044E000FE013996E491E0932504FE013A96E491A9
:1044F000E0932604FE013B96E491E0932704FE013D
:104500003C96E491E0932804FE013D96E491E0930B
:104510002904FE013E96E491E0932A04FE013F96B1
:10452000E491E0932B04FE017096E491E0932C0457
:1045300061E1CE010E94A42090932E0480932D046B
:1045400063E1CE010E94A4209093300480932F0455
:1045500065E1CE010E94A42090933204809331043F
:1045600080910B0490910C04892BA1F18091290476
:104570008093350440912A0440933604909134048A
:10458000992341F1913069F490912B04891714F427
:104590009093350480912C048417E4F480933604BE
:1045A00019C03091260420912804082E000C990B84
:1045B000622F022E000C770B630F711D37FD7A9569
:1045C000861797071CF4320F30933504241714F420
:1045D00020933604DF91CF910895E091C303F091C9
:1045E000C40320E030E0482F6EE08FEB93E00994A5
:1045F0008F929F92AF92BF920F931F93CF93DF93AF
:10460000CDB7DEB7A1970FB6F894DEBF0FBECDBF12
:1046100019A2423008F44AE08E010F5D1F4F842E2C
:10462000912CA12CB12CA50194010E945A2CE62FAB
:10463000B901CA0101501109EA3014F4E05D01C06A
:10464000E95CD801EC93232B242B252B61F7C801BF
:104650000E942222A1960FB6F894DEBF0FBECDBFF6
:10466000DF91CF911F910F91BF90AF909F908F904E
:104670000895CF92DF92EF92FF92CF93DF936C0178
:10468000990FEE08FF08F7FE19C06DE28BEB93E07F
:104690000E94A312EC0166277727CB016C197D09D4
:1046A0008E099F094AE00E94F8228C0F9D1FDF911E
:1046B000CF91FF90EF90DF90CF9008954AE0C7012F
:1046C000B601DF91CF91FF90EF90DF90CF900C94E7
:1046D000F822BC0180E090E04AE00C94F822DF92DE
:1046E000EF92FF920F931F93CF93DF93C82FD62F94
:1046F000E42ED22E162F120FF82EF40E012F2F2D8E
:10470000462F682F8FEB93E00E948A1F882309F1C0
:1047100000E02E2D4D2F6C2F8FEB93E00E941B207D
:1047200001E02D2D4D2F6C2F8FEB93E00E941B206D
:104730006FEF6F0D2D2D4D2F8FEB93E00E941B20FF
:104740004FEF410F00E02E2D6C2F8FEB93E00E9476
:104750001B20DF91CF911F910F91FF90EF90DF9081
:104760000895833008F081E0809339040895FF9222
:104770000F931F93CF93DF93182FC62FF42ED62FAE
:10478000D20F282F240F0D2F462F682F8FEB93E089
:104790000E948A1F882361F0DC1751F000E02F2D62
:1047A0004C2F612F8FEB93E00E941B20CF5FF4CF43
:1047B000DF91CF911F910F91FF900895833081F089
:1047C00028F4813099F08230A1F008958730A9F063
:1047D0008830B9F08430D1F4809180008F7D03C09F
:1047E000809180008F7780938000089584B58F77C3
:1047F00002C084B58F7D84BD08958091B0008F770D
:1048000003C08091B0008F7D8093B00008953FB7C2
:10481000F8948091440890914508A0914608B09181
:10482000470826B5A89B05C02F3F19F00196A11D8A
:10483000B11D3FBFBA2FA92F982F8827820F911D36
:10484000A11DB11DBC01CD0142E0660F771F881F7D
:10485000991F4A95D1F70895FF920F931F93CF9315
:10486000DF93C82FD62F142FF22E00FF0CC0622F1B
:104870006D1B842F8C0F0E9407226F2D6C1B8D2FB8
:10488000810F0E94072201FF0CC06F2D6D1B812F2D
:104890008C1B0E9407226F2D6C1B812F8D1B0E9489
:1048A000072203FF0CC06F2D6D0F812F8C0F0E940C
:1048B00007226F2D6C0F8D2F810F0E94072202FFA0
:1048C00011C06F2D6D0F812F8C1B0E9407226F2D41
:1048D0006C0F812F8D1BDF91CF911F910F91FF9056
:1048E0000C940722DF91CF911F910F91FF900895B3
:1048F000CF93DF93C82FD62F681710F4C62FD82F69
:10490000DF3F09F4DEEFDC1730F062E18C2F0E940C
:104910000722CF5FF8CFDF91CF910895CF92DF923A
:10492000EF92FF920F931F93CF93DF93F82EE62E13
:10493000C42E03E0060F23E0280F4EEF460F6EEF64
:10494000680F8FEB93E00E948A1F882319F10C2DCA
:104950002E2D4F2D62E080E00E942C24C0E012E05A
:104960008CEFD82EDFEFCF5F8C2F880F8F5FD80FA3
:104970000C2D2E2D4F2D612F8C2F0E942C24C11712
:1049800048F4D7FD05C0D394D394DD0D11E0EBCFEF
:1049900012E0E9CFDF91CF911F910F91FF90EF903F
:1049A000DF90CF9008959B01DC011896ED91FC916A
:1049B000199741E067E10994CF93DF93282F30E006
:1049C000F901E152F04E8491F901E553F04ED49192
:1049D000F901E954F04EC491CC2391F081110E9469
:1049E000DE23EC2FF0E0EE0FFF1FE355F04EA59114
:1049F000B491EC91ED2381E090E021F480E002C0DD
:104A000080E090E0DF91CF9108951F93CF93DF93E3
:104A1000282F30E0F901E152F04E8491F901E5537D
:104A2000F04ED491F901E954F04EC491CC23C1F079
:104A3000162F81110E94DE23EC2FF0E0EE0FFF1FF6
:104A4000ED55F04EA591B4919FB7F894111104C0A3
:104A50008C91D095D82302C0EC91DE2BDC939FBFC4
:104A6000DF91CF911F910895CF93DF9390E0FC01E8
:104A7000E553F04E2491FC01E954F04E84918823D3
:104A800061F190E0880F991FFC01E756F04EC59147
:104A9000D491FC01ED55F04EA591B491611109C07E
:104AA0009FB7F8948881209582238883EC912E23E8
:104AB0000BC0623061F49FB7F8948881322F309533
:104AC00083238883EC912E2B2C939FBF06C08FB736
:104AD000F894E8812E2B28838FBFDF91CF91089522
:104AE0008E3008F08E508770806480937C008091B7
:104AF0007A00806480937A0080917A0086FDFCCFF2
:104B0000809178002091790090E0922B08958F9207
:104B10009F92AF92BF92CF92DF92EF92FF926B0182
:104B20007C010E9407244B015C01C114D104E10403
:104B3000F104F1F00E940724DC01CB0188199909E6
:104B4000AA09BB09883E9340A105B10570F321E095
:104B5000C21AD108E108F10888EE880E83E0981E99
:104B6000A11CB11CC114D104E104F10419F7DDCF7B
:104B7000FF90EF90DF90CF90BF90AF909F908F907D
:104B800008951F920F920FB60F9211242F933F9307
:104B90008F939F93AF93BF9380913F08909140086C
:104BA000A0914108B09142083091430823E0230FBF
:104BB0002D3720F40196A11DB11D05C026E8230F55
:104BC0000296A11DB11D2093430880933F08909346
:104BD0004008A0934108B093420880914408909106
:104BE0004508A0914608B09147080196A11DB11D46
:104BF0008093440890934508A0934608B0934708D3
:104C0000BF91AF919F918F913F912F910F900FBEC8
:104C10000F901F901895CF93DF9300D0CDB7DEB7DC
:104C2000789484B5826084BD84B5816084BD85B587
:104C3000826085BD85B5816085BD80916E00816093
:104C400080936E0010928100809181008260809339
:104C5000810080918100816080938100809180003B
:104C60008160809380008091B10084608093B10066
:104C70008091B00081608093B00080917A00846060
:104C800080937A0080917A00826080937A0080918C
:104C90007A00816080937A0080917A0080688093A6
:104CA0007A001092C10061E08CE00E94342561E03E
:104CB00086E00E94342561E085E00E94342561E0B1
:104CC0008DE00E94342560E080E10E94342560E0A0
:104CD00081E10E94342560E08EE00E94342562E08C
:104CE00082E00E94342562E084E00E94342562E084
:104CF00083E00E94342561E08CE00E94052561E09C
:104D000086E00E94342560E086E00E94052561E08F
:104D100085E00E94342560E085E00E94052560E082
:104D20008DE00E94052582EC91E09A838983BE0183
:104D30006F5F7F4F80E090E00E94CB1686E292E0AA
:104D40009A838983BE016F5F7F4F84E090E00E9469
:104D5000CB1688E190E09A838983BE016F5F7F4F15
:104D600088E090E00E94CB1663E08CE090E00E9427
:104D7000F61660E08DE090E00E94F6166CE38EE09F
:104D800090E00E94F61662E38FE090E00E94F61633
:104D9000E091C303F091C40320E030E040E06AE01A
:104DA0008FEB93E009958FEB93E00E94F5218FEB59
:104DB00093E00E94D021182F8111F9CF60E08FEB92
:104DC00093E00E94542160E08FEB93E00E944A211F
:104DD000809110010E94ED2283E09CE190933C04BD
:104DE00080933B0485E894E10E94362281E0809321
:104DF000180410923D048FE080933E0485E792E012
:104E00000E94342210923D0480E280933E0488E8A0
:104E100092E00E9434228FEB93E00E94D02100E3C5
:104E200078E5C72E72E0D72EE12CF12C0E94EA170C
:104E30000E940A179093A1038093A00310923D044F
:104E400000933E04DC0123EE3FEF4FEF5FEF0E9443
:104E5000472CA70196010E94282CCA01B901615C68
:104E60007F4F8F4F9F4F812F0E9407228FEB93E040
:104E70000E9471218FEB93E00E9467211F5F1F3317
:104E8000A9F620E430E130930101209300018091E4
:104E900069008C7F826080936900E89A30930301F7
:104EA0002093020180916900837F8860809369006C
:104EB000E99A84B7877F84BF80916000886180937E
:104EC000600081E380936000809160008064809343
:104ED00060002FB7F89480913F0890914008A0910E
:104EE0004108B09142082FBF8093AA039093AB036F
:104EF000A093AC03B093AD0388EE93E0A0E0B0E0E4
:104F00008093860390938703A0938803B0938903CB
:104F100085E290E1909385038093840380917000F3
:104F20008E7F809370008091B0008C7F8093B00062
:104F30008091B100877F8093B1008091B6008F7D12
:104F40008093B600809170008D7F80937000809177
:104F5000B10084608093B1008091B1008C7F809318
:104F6000B10086E090E090938B0380938A0398E0F1
:104F7000492E20E0822E20E0922E3EE5C32EDD2435
:104F8000D39442E6A42E42E0B42E5AE3752E6BE28F
:104F9000662E83E0582E809112012091A303309158
:104FA000A40390E0281739070CF0F5C28091AE03F6
:104FB0008823C9F081E0809311018093A2030E94AD
:104FC000241808E512E00E940A179093A103809329
:104FD000A00301501109B9F760E08FEB93E00E9444
:104FE0004A211092AE030E9458182FB7F89480916E
:104FF0003F0890914008A0914108B09142082FBF0E
:105000004091AA035091AB036091AC037091AD0342
:10501000841B950BA60BB70B883B9B40A105B105E4
:10502000D0F02FB7F89480913F0890914008A0915C
:105030004108B09142082FBF8093AA039093AB031D
:10504000A093AC03B093AD030E94EA1780E10E94E5
:10505000702580930F0180910E01882309F4ABC065
:1050600082E00E94DC24892BD1F582E00E94DC24BE
:10507000892B69F50E9458188091A8039091A90383
:1050800001969093A9038093A803099770F38091E8
:1050900010018F3F19F08B5F8093100170923D04D7
:1050A00060923E046091100170E080E090E04AE080
:1050B0000E94F8228FEB93E00E9471218FEB93E026
:1050C0000E946721809110010E94ED22CECF1092A4
:1050D000A9031092A80380919F038F5F3EC083E0D5
:1050E0000E94DC24892BE1F583E00E94DC24892BDB
:1050F00069F50E9458188091A8039091A903019620
:105100009093A9038093A803099770F380911001ED
:10511000863018F085508093100170923D046092A3
:105120003E046091100170E080E090E04AE00E944F
:10513000F8228FEB93E00E9471218FEB93E00E94A5
:105140006721809110010E94ED22CECF1092A90319
:105150001092A80380919F03815080939F0334C1D4
:1051600084E00E94DC24892B09F02EC184E00E9497
:10517000DC24892B19F40E945818F8CF80919F03E2
:10518000823031F0833081F0813009F01DC1BFC021
:10519000A8958091120190E09093A4038093A303BB
:1051A00081E08093AE0310C19091A20381E0892732
:1051B0008093A20309C180919E03882309F404C14E
:1051C00020909D0330909C03E0909B03F0909A0305
:1051D00000919903122D130D1E0D1F0D100F82E06B
:1051E0000E94DC24892B91F5111104C080910D01DE
:1051F0008F5F36C0222031F080910B0190910C011D
:10520000059638C0332031F08091090190910A0150
:1052100005963CC0EE2031F0809107019091080185
:10522000019640C0FF2021F0809106018F5F44C0AD
:10523000002329F0809105018F5F809305016EE1C5
:1052400070E080E090E00E948725BEC083E00E946D
:10525000DC24892BD9F5111106C080910D018150F4
:1052600080930D01ECCF222051F080910B019091A1
:105270000C01059790930C0180930B01E0CF332034
:1052800051F08091090190910A01059790930A01CC
:1052900080930901D4CFEE2051F0809107019091C5
:1052A000080101979093080180930701C8CFFF2060
:1052B00031F080910601815080930601C0CF002318
:1052C00009F4BDCF809105018150B7CF84E00E94E1
:1052D000DC24892B09F078C084E00E94DC24892B2F
:1052E00019F40E945818F8CFE0910D018E2FEE0F9F
:1052F000990BAA0BBB0B8930910508F065C0FC0126
:10530000EC5CFF4F0C94CE2E81E080930D019091C8
:105310000E01982790930E0190919E038927809308
:105320009E0352C090919D0381E0892780939D0345
:105330006BE071E080E090E015C090919C0381E00B
:10534000892780939C0369E071E084E090E00AC0C3
:1053500090919B0381E0892780939B0367E071E034
:1053600088E090E00E94CB162FC010929803109214
:10537000970381E004C09091110181E08927809317
:10538000110122C090919A0381E0892780939A03AA
:10539000609106018EE090E015C06091960381E077
:1053A0006827609396038DE090E00E941A2C0CC051
:1053B0009091990381E08927809399036091050179
:1053C0008CE090E00E94F61680919F03843014F0E8
:1053D00010929F0380919F0387FD50929F038091BD
:1053E0000D01893014F010920D0180910D0187FD9F
:1053F00040920D0180910B0190910C018E359140EE
:1054000020F4D0920C01C0920B0180910B0190917D
:105410000C018336924020F0B0920C01A0920B0157
:105420008091090190910A0120910B0130910C01AA
:105430008217930720F490930C0180930B0183361D
:10544000924020F0B0920A01A092090180910901D6
:1054500090910A018E35914020F4D0920A01C092B9
:10546000090180910B0190910C012091090130916B
:105470000A012817390720F490930A018093090143
:105480008091070190910801883E934020F010928E
:10549000080110920701809197038111BBC0809190
:1054A00098038111B7C0809197038111B8C0809192
:1054B00098038111B4C08091A203882309F4AFC07E
:1054C00080919503882309F4AAC00E9424180E94A1
:1054D0003E188091A0039091A10320910901309181
:1054E0000A018217930708F4A9C02091970321119C
:1054F000A5C02091A203222309F4A0C081E08093DB
:10550000A7038091A703882309F47DC0A895809103
:1055100091038823D1F010928D0310928E03109284
:105520008F031092900310928C0380918A039091C4
:105530008B038093B2008091700081608093700033
:105540001092910381E080930401809192038A304C
:1055500009F08EC080910401882309F489C08091EC
:10556000A0039091A1039093A6038093A5031092AA
:1055700004012091A0033091A10380910B0190912F
:105580000C018217930720F481E0809395033BC0C0
:105590001092950338C0809112012091A30330919D
:1055A000A40390E02817390774F11092A203109217
:1055B00011010E943E180E942418609110018FE092
:1055C00090E00E94F61661E08FEB93E00E944A2182
:1055D00081E08093AE0380916400816080936400D9
:1055E000F89483B7817F846083BF83B7816083BF72
:1055F0007894889583B78E7F83BF78948091640078
:105600008E7F809364008114910409F4C4CC0E94BD
:105610000000BFCC1092A2031092110144CF8091E0
:1056200070008E7F80937000109294031092930309
:105630001092920381E08093910347CF20910B0158
:1056400030910C012817390770F42091970321112C
:105650000AC0892B41F080911101882321F08091AB
:10566000A20381114ECF1092A7031092950349CF48
:10567000909192038091060198137BCF8091A003B3
:105680009091A1032091A5033091A603821B930B57
:105690008B3F9F4F0CF46DCF8091A203882321F0A4
:1056A00081E08093970365CF8091120190E0909301
:1056B000A4038093A3035DCFCF931092B203109203
:1056C000B10388EE93E0A0E0B0E08093B303909341
:1056D000B403A093B503B093B6038DE791E0909324
:1056E000B0038093AF031092BE031092BD0388E411
:1056F0009CE190933C0480933B0410923D041092F3
:105700003E041092D8038FE891E09093BC038093FD
:10571000BB031092C0031092BF031092D4031092E7
:10572000D7031092CB031092CC031092CD031092AA
:10573000CE038FEF8093D5038093DA03EEEDF3E091
:1057400084EF93E02FEFCFEF21938E179F07D9F7C8
:1057500086E39BE19093C4038093C3038FE29DE1B2
:105760009093C6038093C50382E790E19093C803AA
:105770008093C70382E591E19093CA038093C903A4
:1057800020E030E040E069E08FEB93E00E94361BC0
:1057900010920C0410920B0485EA9CE19093F5039F
:1057A0008093F4038FE394E09093F9038093F803DC
:1057B00088E08093FA031092FB0310921804109271
:1057C000380481E08093390480933A0487E991E0BA
:1057D0009093F7038093F6038FEB93E00E945F1C96
:1057E0001092070410920904C0930804C0930A049D
:1057F000E091F603F091F7030280F381E02D8FEB47
:1058000093E0099581E09DE190930E0480930D044F
:1058100010921B04C093E903C093EA03C093EB0307
:10582000CF910895F999FECF92BD81BDF89A99273D
:1058300080B50895262FF999FECF1FBA92BD81BD7C
:1058400020BD0FB6F894FA9AF99A0FBE0196089502
:10585000052E97FB1EF400940E943F2C57FD07D0A5
:105860000E945A2C07FC03D04EF40C943F2C509508
:105870004095309521953F4F4F4F5F4F089590953C
:105880008095709561957F4F8F4F9F4F08950E942F
:105890007C2CA59F900DB49F900DA49F800D911D11
:1058A00011240895B7FF0C94472C0E94472C821BAB
:1058B000930B0895A1E21A2EAA1BBB1BFD010DC07C
:1058C000AA1FBB1FEE1FFF1FA217B307E407F507B0
:1058D00020F0A21BB30BE40BF50B661F771F881F8C
:1058E000991F1A9469F760957095809590959B0122
:1058F000AC01BD01CF010895A29FB001B39FC001CB
:10590000A39F700D811D1124911DB29F700D811DEB
:105910001124911D08955058BB27AA270E94A32C3B
:105920000C941D2E0E940F2E38F00E94162E20F08F
:1059300039F49F3F19F426F40C940C2E0EF4E095E4
:10594000E7FB0C94062EE92F0E942E2E58F3BA176F
:10595000620773078407950720F079F4A6F50C9485
:10596000502E0EF4E0950B2EBA2FA02D0B01B9018D
:1059700090010C01CA01A0011124FF27591B99F0C5
:10598000593F50F4503E68F11A16F040A22F232FD1
:10599000342F4427585FF3CF469537952795A79521
:1059A000F0405395C9F77EF41F16BA0B620B730BC8
:1059B000840BBAF09150A1F0FF0FBB1F661F771F39
:1059C000881FC2F70EC0BA0F621F731F841F48F4EE
:1059D000879577956795B795F7959E3F08F0B0CF77
:1059E0009395880F08F09927EE0F9795879508955E
:1059F0000E94E22D08F481E008950E94112D0C947C
:105A00001D2E0E94162E58F00E940F2E40F029F4F1
:105A10005F3F29F00C94062E51110C94512E0C94DA
:105A20000C2E0E942E2E68F39923B1F3552391F387
:105A3000951B550BBB27AA2762177307840738F0FD
:105A40009F5F5F4F220F331F441FAA1FA9F335D05A
:105A50000E2E3AF0E0E832D091505040E695001C0E
:105A6000CAF72BD0FE2F29D0660F771F881FBB1FC8
:105A7000261737074807AB07B0E809F0BB0B802DA6
:105A8000BF01FF2793585F4F3AF09E3F510578F0D2
:105A90000C94062E0C94512E5F3FE4F3983ED4F301
:105AA000869577956795B795F7959F5FC9F7880FA6
:105AB000911D9695879597F90895E1E0660F771FF8
:105AC000881FBB1F621773078407BA0720F0621B89
:105AD000730B840BBA0BEE1F88F7E09508950E94B4
