:100000000C94FC0F0C94E51D0C94BE1D0C94241054
:100010000C9424100C9424100C94AD190C942410FE
:100020000C9424100C940C1E0C9424100C9424108A
:100030000C9424100C9424100C9424100C94241070
:100040000C9470250C9424100C9424100C942410FF
:100050000C9424100C9424100C9424100C94241050
:100060000C947E1E0C9424108A29372942294D298C
:100070005A296029672972297D298A295F0003038B
:1000800004040204050B0BFEFE070007FE015802E4
:10009000C303F92005006205210772234DE42422E1
:1000A00008347285642500230C66E24D288B2514E4
:1000B0003984042410B59A5D30264A49934546B5E3
:1000C000600800251179A2964C92A41407448491EB
:1000D00088925102260E76E2952C941253898C2236
:1000E0009400270632F24C01280A931A552414D1A1
:1000F0002916290B931A452C14926849022A0B568B
:10010000E64D2826B25044022B0A66A15D346412E3
:100110002A012C0732990C05002D0725AAC541029A
:100120002E0622E2CC002F0B75A29D48268B29C9F2
:1001300000300D77229E30941691318D6400310786
:1001400072E2CC2472320A75A2952831A4AD003334
:100150000C76E2952C148D89492600340D76E265E3
:10016000501609A5D8841200350B75A2D524161D8A
:100170008E2404360D76E29D2C14898E44242500AD
:10018000370A74A3052D94A40900380C76E2952C47
:10019000944D24222901390C74628D24248A8C24E4
:1001A0004A003A0752E24C74003B0762994C9402B1
:1001B0003C0856E6A548913A3D07346A0591003E51
:1001C0000A56E685583A1909013F0C75A2CD2496C6
:1001D000269243440040169A995E311A0AAD844231
:1001E000935068128A9024B238CC02410B76E29583
:1001F0002C94E5106212420D76E20D29168959649D
:10020000330B00430A75A2952825A6AD00440B7652
:10021000E20D2916896DB300450B75A20D2518A3B3
:10022000C86405460B75A20D2518A3C8D400470C59
:1002300076E215251A94D4661600480B76E24D280E
:100240002F87109300490872E24CCA41004A0B9470
:1002500019952C49A78808004B0F76E24D2C124ABD
:1002600009CD24215144164C0975A24D304D5B0136
:100270004D0C79A2964416CA8B94AB004E1178624D
:100280004E30240B454211498814A115054F0D77B6
:1002900022D62C291691B1894600500C76E20D2900
:1002A00016891D848A00510D871ED62C291691317E
:1002B0008DC802520E76E20D2916891D2421514463
:1002C00016530B75A29528252A1D5500540A75A2B0
:1002D000452918D30900550B76E24D282F22A64355
:1002E00000560F75A24D28128A84562292C8080023
:1002F000571079A24E34140D452352528814B2106F
:10030000580E77224E2C144B8906256A3401590B5E
:1003100075A2454C16498B69025A0976E24D35980B
:10032000A6685B0A945ACD2496A413015C0B75A2AF
:100330008550260CCA84025D09931AC5288B960243
:100340005E08446E55CA44145F07259EC54102608D
:10035000073233458400610B56E2952C14398448EA
:1003600002620A56E20D2966915900630955A29569
:1003700028349315640956E20D29B66601650955BE
:10038000A20D25469115660A55A20D254691C90074
:10039000670956E2152528A91D680A56E24D28CBA3
:1003A000214412690752E24CE4006A0A74D8942C82
:1003B000A42922026B0C55A24D289232924444018A
:1003C0006C0855A24D30A6566D0D59A29644164A9A
:1003D0001185A854016E0D57224E2C248A4822A460
:1003E0009A006F0B5722D62C4546138D00700A5683
:1003F000E20D2966110A01710B671ED62C45461ABB
:100400009105720A56E20D2966918414730A55A269
:10041000D5242A115500740955A24529A60900754D
:100420000A56E24D288B887408760D55A24D281285
:100430009A4424911100770E59A24E34148D8842AB
:10044000A4908500780B57224E2C251A94A8097980
:100450000A55A2452C921653027A0855A20D2DA4D6
:10046000567B0B96DA9D2C9A2616AA0E7C0892DEF5
:100470004C9603017D0C96DA8D389A2C122ACD0009
:100480007E0A372A8E30228A4D0000000004FFFFCA
:1004900000004100030204040304050E0EFFFC08E3
:1004A0000008FF000000000213200500C409210716
:1004B00071458A4109220733ED8AC4122311774519
:1004C000AC244CA26148A268989230C900240F95D0
:1004D000BDAB6C50A224DB922819B408251489C541
:1004E0001D2DAA6451122A399288499425514D0133
:1004F000260D86452C2D4DB5C43464CA122706310D
:10050000ED89012809923D9A44E99404290A923D13
:100510008A244A5A94042A0A55DCAA4AE52045004E
:100520002B0B67C5BC381B862CAE012C0621BD09E0
:10053000012D0613548A012E0611C589002F0A8346
:10054000BCA996A8124500300A85C59B25F32D59F4
:1005500000310985C5AB68EC6910320A84458B31DE
:100560002BB50D01330C85C58B210D93350C07057B
:10057000340D75CDBB4C4AA2A4940C5A02350C84A0
:10058000458B25CBC62C1B1200360D85C5AB250B24
:100590008724B3250B00370B75458B41CCC22C2C1F
:1005A00001380D85C59B25D39225B3250B00390D48
:1005B00085C59B25B32543982513003A0651C58967
:1005C0002C3B0661BD894C3C0B67C5EC6C597560D2
:1005D00007023D0736558CF3303E0B57C58C1CD8AF
:1005E000816D19013F0B84458B318B6A39100140B5
:1005F0001699B5BD2113A36448942C51B244C992F5
:1006000083A44343045B08923D8AA52F025C0A83BE
:10061000BC89288B6A51015D08923D0AA52F035EB3
:1006200008356EAC2CA9055F0615AC8A4160062220
:10063000F58A287B0A93B61B25AA6451497C07A139
:10064000B58987007D0B94B60BAD51C94A12007E67
:100650000827D51C4D5A00A00500440BA409444DA1
:100660008B41920601A70D94BD9A219392D21269F3
:100670004302AB0A454DAB6450126908AC07364DD6
:100680008C6B01B00833E50A251902B608843D9B3E
:10069000E19307B70611DD8900BB0A444D8B244A5C
:1006A0002A4A02D70C66458C308932518BE200F71A
:1006B0000B57CDBC1C1B861CCB0000000008FB5157
:1006C000046EFFFF060C0721C50901061B0751C474
:1006D0000929061F0B73CD8A21AAA5090006210747
:1006E00033449A4D06220A83CC891D88BA0006231A
:1006F0000A93C499DA16750106240EA4B51A259436
:1007000095D214291900062508A2B4997E3106262F
:10071000109734BC34D61131CA94704D06050627A3
:100720000871CD89430006281069B58D1CD0011DC4
:1007300048862127840006290B64458B24562269AC
:1007400010062A1059C5BD24CB011DD08164181292
:1007500000062B1179C5CD9C946439A0033A900C06
:100760004302062C0C76351C79D1D2A83C08062D04
:100770000D86359C3089172D2D0F02062E0D963DC6
:10078000BC1C99172D2D0F02062F0A5445AB2CCCFB
:10079000860406300D84459B1CC9C22C1B12000622
:1007A000310954BDBAA6440206320B84B5AA1CCD49
:1007B0004A89040633116C347E3047A2348AD4410E
:1007C00009E521070634139C347E2467A933265992
:1007D00014A98312CA430E0635126CB47E6847A270
:1007E00034C9D441097360C8010636148CB47E281C
:1007F00067DA91284D327550C21C18720006370E08
:1008000087459CB8933425523248000638108745F6
:100810009CB812C69134255232480006390D8534F1
:100820002B291CA2AC280E01063A0EA534AB1C9253
:10083000C221CA8AE21006400713C4890106411189
:1008400089C57D206754D2441D7220198604064252
:100850000F87B44B1D15236D484565880006430D71
:100860008645DC92528BBA0E0B0006440C973CEC8A
:10087000CEAA3519140006450C85352B291A86B0E9
:10088000230006460E67B4BB1C2926A9180D1100CB
:1008900006470A444D1B2592060106480B64B51A0B
:1008A000A534454A0606490D67345C31CA94704D3B
:1008B0000605064A0E772C5C31CA94704D064D032E
:1008C000064B07117C8800064C08336B980B00061A
:1008D0004D07112D8800064E06007408064F083299
:1008E0006C084501065007112D8800065107236B3F
:1008F000086506520722748821065307137488017D
:10090000065407326C1803065507322C88450656E4
:1009100007113D8800066007125E0B0106610A732D
:10092000C68B2CAA450506620C75C58B2C99C23462
:100930002C0106630D8545AB444986210DDB00067D
:10094000640B734E9B5A9444990006650B544D9B5F
:10095000282949430206660965C58B21EC1A0667FA
:100960000C85454B4DAA449A580206680C7545AB58
:10097000CCA91225590006690D85C51B29899268E5
:10098000085B03066A0E95BD0B6909B3300BB368AB
:1009900012066B0B84B3B9521665A50C066C0832AF
:1009A000BD994401066D0B45DDAB6890B22401068C
:1009B000700600740806710A83C489458CBA000663
:1009C0007E1279AD8D1CD0011D48862187931C08AD
:1009D0000106860D862D1C79D1D2A4A93C08069863
:1009E0000C94BDAA4847B352220106A41499C57DB0
:1009F0002007929C4D491375C8816418120006A9FE
:100A00001079CD7D40D5812C8DE2248E860906AFEC
:100A1000118AC57D4456E2394CA5388AB361030674
:100A2000C00D84451B25D3012592060106CC0D6718
:100A3000345C31CA94704D060506F00933D68B211B
:100A4000190206F10A73C68B2CAA450506F20C752D
:100A5000C58B2C99C2342C0106F30D8545AB444956
:100A600086210DDB0006F40D85C5BB251B92300DDC
:100A70004B0006F50E75C5AB2C89929A25591200CC
:100A800006F60D75459B25CC92290B430006F70C05
:100A900085454B4DAA449A580206F80C7545ABCCD7
:100AA000A91225590006F90D85C51B2989926808E8
:100AB0005B03200C08A124888700200D08A22308CE
:100AC000A57F200E09A22488A5BF00200F08A2231D
:100AD00008A57F20100713548A012014081A548D8A
:100AE000870020220833D50A651820260817C58CF0
:100AF000A800202F0600C40820AC0D86C4BB290C1A
:100B00000765C8E278221207165D8C0322190711C7
:100B1000DD890025CC0B77BCBB9CA4E6240DFB50E3
:100B20000A83C489458CBA00FB510A84448A49CEA1
:100B3000DA06FB561279AD8D1CD0011D488621873F
:100B4000931C0801FB57138BA58D1CCB913A900D7C
:100B500043A213929C1C03FB580A732CAA684CC234
:100B600004FB590B74A3A92C19525901FB6A14995F
:100B7000C57D2007929C4D491375C88164181200E9
:100B8000FB6B118AC57D2047EA0CB19226D56958C6
:100B900004FB6C0D84C49A1D9292641B1200FB6DC1
:100BA0000D85C4AA2CC96129899641FB7A0D862D31
:100BB0001C79D1D2A4A93C08FB7B12872D1C1D985F
:100BC00094284C1265CA72605000FB7C0F87A49B6E
:100BD0001DD8A42107931C0D01FB7D1088249C1DAA
:100BE00019A721D2A12427A400FB8A0C94BDAA48EE
:100BF00047B3522201FB8B0EA52D9B1CD2296128E5
:100C0000451A00FB8E1079CD7D40D5812C8DE224D4
:100C10008E8609FB8F138B457E2847742487D25418
:100C20008BA5581B2601FB900B75C33A454B8BC90E
:100C300004FB910B76443B498CABCA14FB92118A9E
:100C4000C57D4456E2394CA5388AB36103FB931540
:100C50008BC57D4407941CD88134D572208A936853
:100C60009804FB940C85C3CA485BD2623201FB95A1
:100C70000C8644BB4C9C6255940CFBA40D84451B14
:100C800025D30125920601FBA50D85459B2C5433E8
:100C900029898634FBE808334CAA6801FBE909344A
:100CA000C3A92C1902FBFC0D67345C31CA94704D4A
:100CB0000605FBFD0C48349C381CD2689000FBFEF6
:100CC00009533CAA684C02FBFF0A54B3A92C1952E1
:100CD00005FC5E0A53E49941C91600FC5F0A53DC27
:100CE00009650A1300FC600943ECA9245106FC6164
:100CF0000953E4096D5106FC620833EC09650AFCEE
:100D0000630843EC995019FD3C09844C0AAD6F030C
:100D1000FD3D0983C41969EA05FD3E15C7ACEB50DA
:100D200053B24D9106454A12D3A08D49BA00FD3FFA
:100D300015C7AC8B784DD24D9106454A12D3A06DA4
:100D4000493602FDFC1EADB4DE24C7921C4B722C4A
:100D5000C9B1244AD2244AC46412D3244B926D8769
:100D600000FE800733449A4DFE810A83CC891D889A
:100D7000BA00FE8209844C8A39EB36FE830A93C49A
:100D800099DA167501FE840A94449A28D37A1BFED8
:100D9000850EA4B51A259495D214291900FE861043
:100DA000B52D1B2DD4A12C89926C8BA410FE870825
:100DB000A2B4997E31FE880BB3AC99A84F4A490181
:100DC000FE89109734BC34D61131CA94704D060593
:100DD000FE8A108834CC384774300E87341A2400C9
:100DE000FE8B0B83449A920E450B00FE8C0C74C351
:100DF0001925D4812C1902FE8D0871CD894300FE7E
:100E00008E0982C589A42F02FE8F1069B58D1CD072
:100E1000011D488621278400FE90116BB58D1CCBE7
:100E2000913A900D43A2536200FE9109533CAA6887
:100E30004D00FE920A54B3A92C19E204FE930B64F0
:100E4000458B2456226910FE940D85459B3A9249A4
:100E500053654803FE951059C5BD24CB011DD081B3
:100E600064181200FE960F5BC54D35C772A40E6460
:100E7000C39008FE970A63448A2447A205FE980A95
:100E800054C3191DC89221FE991179C5CD9C946453
:100E900039A0033A900C4302FE9A117BC5DD9CAC4D
:100EA000E6588ED4816C181201FE9B0B83449A3055
:100EB000C9916801FE9C0B74C3195907B26408FEFE
:100EC0009D0C76351C79D1D2A83C08FE9E11872D49
:100ED0001C1D9894284CA264CE814101FE9F0D6791
:100EE000B49B1DD8A421474300FEA00D68349C1D6F
:100EF00019A721D2B114FEA10D86359C3089172D7A
:100F00002D0F02FEA210872D1C1D9894284CC2396B
:100F1000070605FEA30B47C49B1DD8A42103FEA40E
:100F20000B48449C1D19A72112FEA50D963DBC1C23
:100F300099172D2D0F02FEA613B72DBC1C4C776000
:100F400052A23009E71C181400FEA70D77C4BB9C01
:100F5000B8039B346400FEA80D7844BC9C6147C66E
:100F6000698804FEA90A5445AB2CCC8604FEAA0A63
:100F700056C5AB344EA345FEAB0D84459B1CC9C280
:100F80002C1B1200FEAC0B86C59B1C2DA7A545FE95
:100F9000AD0954BDBAA64402FEAE0A552DBB30942D
:100FA000220DFEAF0B84B5AA1CCD4A8904FEB00CFD
:100FB000852D9B9C148652A401FEB1116C347E30A9
:100FC00047A2348AD44109E52107FEB2105C347E81
:100FD000A41C25C561107360C801FEB30E49447D91
:100FE000244BA22C89860B00FEB40D3A44BD28097F
:100FF000A324392401FEB5139C347E2467A933262B
:101000005914A98312CA430EFEB6139C347E20677E
:10101000D23946497118C41C187200FEB70F7944C2
:10102000CD9C94E4E42C89860B00FEB80E7A44DD56
:101030009CA8334749724802FEB9126CB47E6847D7
:10104000A234C9D441097360C801FEBA136DB47EDD
:101050006887943891927418C41C197204FEBB0CF2
:1010600049C36C39AA64CBA000FEBC0E4AC36C1DF8
:1010700088B2244B946108FEBD148CB47E2867DAD4
:1010800091284D327550C21C187200FEBE158DB4E9
:101090007E2867DC21254EA4241D063147861C01CD
:1010A000FEBF0E69C3DC9C2847956C191400FEC076
:1010B000106AC3DC9CAC0351966489320C01FEC1FA
:1010C0000E87459CB893342552324800FEC21388DF
:1010D000C59C1CC8811CC881489B22291A0601FE98
:1010E000C30E87C49BB893342552324800FEC41304
:1010F00088449C1CC8811CC881489B22291A06016F
:10110000FEC51087459CB812C6913425523248005E
:10111000FEC61388C59C1CC88124CD81489B22290A
:101120001A0601FEC71087C49BB812C69134255217
:10113000324800FEC81388449C1CC88124CD8148D5
:101140009B22291A0601FEC90D85342B291CA2AC4D
:10115000280E01FECA0B653D2B4D516AEA10FECBED
:101160000A45449B298C0605FECC09344C1A2D51A6
:1011700002FECD0EA534AB1C92C221CA8AE210FE3B
:10118000CE0E9535BB1CD1A445A9A94300FECF0CBA
:101190007544AB1C9EC2685000FED00A6444AA1C71
:1011A000D31225FED11189C57D206754D2441D720A
:1011B00020198604FED20F7AC57D2067899534A94F
:1011C0004EC322FED30D84C4AA1C9392641B12004A
:1011D000FED40C75C4AA9C2025D13208FED50F87F9
:1011E000B44B1D15236D4845658800FED610883424
:1011F0004C9D2027B5A438A4D12001FED70D84C46E
:101200009A3A2425C9362400FED80C75C49A3A2C83
:1012100025D13208FED90D8645DC92528BBA0E0BD1
:1012200000FEDA108745DC3853B2288BB2284E0610
:1012300025FEDB0B75C33A454B8BC904FEDC0B76F0
:10124000443B498CABCA14FEDD0C973CECCEAA356E
:10125000191400FEDE14A834EC1CC8811CC8811CC3
:1012600048D2241DA54102FEDF0983C3A93E2D00FB
:10127000FEE00983C499A82F03FEE10C85352B29D4
:101280001A86B02300FEE20E67358C418AA4CA2478
:10129000C53100FEE30935C4BA481906FEE40A3632
:1012A000442B2D4A1225FEE50E67B4BB1C2926A946
:1012B000180D1100FEE60D67B4BB1C0B93548C8611
:1012C00008FEE70A63449A1C8A1600FEE80A54C323
:1012D000A91CC89221FEE90A444D1B25920601FE75
:1012E000EA0B6545AB309A2A431AFEEB0C56CC2B21
:1012F0002D9192CA6108FEEC0E75ACAA2C89922839
:1013000049963605FEED0B64B51AA534454A06FE2E
:10131000EE0D752DAB2C89926C8BA410FEEF0D6732
:10132000345C31CA94704D0605FEF00C48349C388C
:101330001CD2689000FEF10E772C5C31CA94704D7F
:10134000064D03FEF20D68249C381CD268D0511162
:10135000FEF309533CAA684C02FEF40A54B3A92CCC
:10136000195205FEF50F86CC8B294DB2A85B924D24
:101370001200FEF61297C48B298EB2521685499838
:10138000844A1402FEF70FA6C49B3096D2A86F4978
:10139000A66500FEF814A7BC9B584AC2282B6551CD
:1013A000988449A8442100FEF90DB4AE3BC929A98F
:1013B000D8A24C02FEFA14C525BB244AA224AA4492
:1013C0004994448A2AA51200FEFB0C84C63BC92915
:1013D000A9281900FEFC11953DBB244AA224AA4469
:1013E0004994448A08000012000202030302030425
:1013F000040800FE05FE06FF000000000083200434
:1014000080542A069B6752072B07DBEDD24A002C3B
:10141000069A5A94022D058B66062E058954022FD2
:1014200008B363AB9862043007ABE42AAB02310621
:10143000AADC56033208ACEC546C8E003309AC6C59
:10144000364A1A8D043408AC6CA29936083509ACBA
:101450006C86061B8D043609ACEC54062B2605372A
:1014600008AC6C4606B10D3809ACEC544C2A260584
:101470003909ACEC544C1B24053A06D95C520000E7
:10148000000004FFFF0000870003020505040506B5
:10149000101000FE0AFE0BFF0197033004FC20062B
:1014A00000A04701210841314471480422088528E1
:1014B0004691B905230F462544D5D3302451CB306E
:1014C000443D012412472544170E4A1449E13C4685
:1014D00052651033002514472544A34949298994AE
:1014E000344E1329899292A6002612472544B595B9
:1014F000B24A282691968849264D01270781304611
:101500003104280C83ED43954449D45B9405290D9F
:1015100083E943914559D44B9444002A0DE7644430
:1015200057AAB46D49532D032B0CE7644417D78693
:10153000218B6B002C0982AC43A1240A002D0724C7
:10154000284531042E07422C4431042F0C462544F3
:101550005BAC8669584D01300E462544A54549E8E7
:101560006312651200310B452944954949D8A741BA
:10157000320F4625443324A198665A584D870133CB
:10158000104625443324A19846732A8AC990003412
:1015900010462544196A4954C9922C19C6B402351B
:1015A0000F4625447148AB839CA662322400360F57
:1015B0004625443585693A28A163322400370B4615
:1015C0002544712DA6C5B40938104625443324A1FD
:1015D000311992D031191200390E4625443324A115
:1015E0003119D4C668023A09E26C4431C443003B65
:1015F0000A22ED4331C44AA2003C092529449975C9
:10160000ED003D09A6A44471270E033E092525449B
:101610009176EB083F0F4625443324A19886D51CCC
:101620004C23004012462544356552A2244BA44465
:101630004A242DF110410E462544A5452DA1380C14
:10164000A26300420E4625443128A1715842C76169
:1016500001430E4625443324A1B5A3980C09004448
:101660000E46254431445912FA2D192200450D46E3
:1016700025447148AB8392B60E03460C462544714F
:1016800048AB83927605470E4625443324A1B534F2
:1016900084366509480B462544113A0E83E83149E2
:1016A0000B4529443148613F0D024A0E4725443518
:1016B00088714F5994651B004B11462544116A49A6
:1016C00054C94431C9A25A12064C0946254491F620
:1016D000D7614D0D462544118AD3102D1E1D034E92
:1016E00010462544116E9B122991944889760C4F1F
:1016F0000C4625443324A13F264302500D46254481
:101700003128A17158D2AE00511767E543334461C7
:101710001226611226611226899248D29003025243
:10172000104625443128A17158A25A9225A1185378
:101730000D4625443324A1D9514C8604540A47252B
:101740004471C8E2FE06550B46254411FAC76448A9
:10175000005611472544915A932CCAA2AC1226690F
:101760009C01570D462544117A71998668140358D7
:101770000F462544118A49D4266A514B2806590E32
:1017800047254491AA4916659534EE065A0B46251D
:1017900044712DF69A0E035B0A83F1433144FDD365
:1017A000005C0C46254491C6D5388DAB015D0A839B
:1017B000E54331F54F43005E09666446A545491887
:1017C0005F0727E4437108600763A8469115610E1F
:1017D0000625443324619A0CA34D5902620E6625F6
:1017E0004491B62C9AE8B8290B00630D06254433C2
:1017F00024A1DA31191200640C662544DBB268A317
:10180000376509650F0625443324A1380C6A311960
:101810001200660C6525442785A5410A7B026713E3
:1018200066A5439B2C5A922559B4A543128AC990A8
:1018300000680C66254491B62C9AE86300690B6534
:10184000294415E688D8A7416A0CA5A5435947C481
:101850003E4A91046B1166254491B6255125139398
:101860002CAA2561006C0A65294423F64F83006D7C
:1018700012072544B128512445522445522445528B
:10188000016E0B062544912C9AE863006F0C062527
:10189000443324A18FC99000700E46A543912C9A21
:1018A000E8B8294B9A02710C46A543B368A3376583
:1018B000490B720B062544912C9AA87605730D06E8
:1018C00025443324A1EC980C0900740B45254415DC
:1018D000960629EC2A750A06254411FA4D59027616
:1018E0000C062544111A93A8375102771107254495
:1018F000914A9114499114499154B100780F0625E9
:1019000044118A4994895A94846200790E46A54309
:10191000117A4C224B5A1912007A0A062544710D8D
:101920007B1D067B0E83ED433365511265511265B5
:10193000027C07C1B143F1417D0F83E943A14549D1
:1019400094454994450B007E0A672446A34991A615
:10195000007F2310A28391F43B49E7A4930E4936FC
:1019600025611A2543924D49984E4332EC9C744EA2
:101970003A29E907802410A28391F43B49E7A49314
:10198000366999922889A243120D619444C5285959
:10199000744E3A279D94F40300000004FFFF4E0AA2
:1019A00020EFE1839D1372424EC8093921271C7232
:1019B0002427E4849C901372424EC891E1034E0B9D
:1019C00022EFA183F1734EC809392127443998E5E4
:1019D000589843698EA439921372424EC80939024D
:1019E0004E0D24EEA183333CE4480EE7680EE7A8D1
:1019F00092434994035196666116A6499ACA399C46
:101A0000C3391C034F112A0FA2835987C21C0A73C2
:101A100024CD916438446A0E886B128E519694B32B
:101A2000A41CB5265951ACA53992E6489A024F201C
:101A30002C0FA2835987C21C0A73241A86B40E88FD
:101A400039A20C87A41847598E45C390E6489A9549
:101A5000C32407D21C8973200E015173260FA28361
:101A600097033910E7409A333CE8504EC80939F0E3
:101A70003B90C3498E263998E5501AEB80A4830227
:101A800051C62B0FA2830F24711AC5611467C33985
:101A9000CB8144CB016518C4288BB372360CCA566F
:101AA000CECA59391B4E594EC81100538B27EFA18E
:101AB00083353C443921CD913447D21C49732419D4
:101AC0000E599A23698EA4515A0BD3AC9C03C9F0CA
:101AD000901353E31AABE983F11DD2211DD2211DCE
:101AE000D2211DD2211DD2A1E121870256682AEF01
:101AF000A18335488356CA9AB26C90061D8972300C
:101B0000CB86CF498E997540D241699006AD943508
:101B100065D9200D0A00571F21EFE1830FE4849C53
:101B2000901372424EC8A1E1A043392127E4849C5E
:101B3000901372420EFC0058E42D0FA28315E7406B
:101B400034DC7242B64C43943466CB584BA3E11656
:101B5000666934DCB4DA321C94344A7244CB01A591
:101B60009443A2005B9A260FA2839D53726478501F
:101B700072544773E270D0A19C9063752C1BD62CD5
:101B8000C7EA5012E548361C74025E38280FA2835B
:101B90000FE4583B105587072547B56188D23A9224
:101BA000E6C830E4608E0DE7AC9C95B3A49C453943
:101BB00098035EA6250FA2830FE4941C191EA2AC05
:101BC0009C9587B7E6AC9C0D724E4886418DD2B08D
:101BD00096A66BA8A93B305F0026EFA183333CA4F7
:101BE0007524CD913447D21C49C3E1639A23698E91
:101BF000A43992E6409C03711D487324045F0225BA
:101C0000EFA183351CD21C4973241D0E698ED5B1FA
:101C10007038E8E43447D270F898E6405C07D21C8C
:101C20000901611F320FA2838F25391A65C34394BE
:101C30000371322851960351960C4A31C92231C999
:101C4000A24A3428DD816C07D21CC891280BA372EC
:101C5000240E431463A52D0FA28317E6509A23D1B7
:101C6000308839382C611A4671321CB23447C41C92
:101C7000508697304BB3300DA33855934C1223390F
:101C80000165F6290EA6830FE67034C85116475930
:101C900032DCE2288BA3418EB2288BB252AD548B3A
:101CA000A3418EB23807931CCD0068212B0FA2836D
:101CB00097E6489C03710E64C3838E8659A8A5D904
:101CC000920349535609B3A89AC46912D78134893B
:101CD000C32C8D54016C342B0FA2830FE4849C9091
:101CE00013C21C0AB3419172245172244A72A89201
:101CF000235994035935ACA5E99CA3490EE7080084
:101D00006CF526EFA183F16B0EE7F0704DE24C8A83
:101D100073E0A06339218D06458BA3A49C4571987F
:101D2000495A92CA39026D472B0FA2838FE4489A11
:101D300043613284D190E6483147A236A59A886241
:101D40004E488687344A4B699845C52CAAA56B0E28
:101D5000016E052D0FA28315E7489A23C970C7D2DB
:101D60007418B21C88A3E120E670340C699496863E
:101D700021DAD2301B86304BC3AC922361066E7FD2
:101D80002ACFE183150D839AC4691247E13068E5D3
:101D9000AC9C26C3A066511C46E112B5454994840B
:101DA00099A486519C0C07017518150EA68317F788
:101DB000DBF0A0C5FD3C0C727F1E06B9067535230D
:101DC0000DAA839BA3399A030F52580A4B616938B5
:101DD0004861292C85A5E1208595344EE3781802C9
:101DE000772030EEA5833D0CC9A0A44996A449965E
:101DF000A4C9A00C439225519825513828C32D8998
:101E0000C22C89C22CC9B241C9222D2925B128175B
:101E10007FFB2C0EA283B90343B60C515BD2960D07
:101E200097A64D52DA3235CA92418B9426A52F528D
:101E3000326895B64A5B65507A8BB2048349220FAB
:101E4000A2839BE55875F89AE54CC33907E2E19CFB
:101E500003F170C772E0772027E4849C90038BBE67
:101E600028EFA183150E7256CEEA581D4A8721C964
:101E7000D16818D22C4CB37218C54994E4809823C9
:101E8000619263661D108D852F0FA2839913A26145
:101E900048C32C1AA62C0DB3348B926418C4381B7B
:101EA000B6240BB3240BB36409B3241BB624071365
:101EB0001D8C8677028F6C2E0FA2839503710EC442
:101EC00039100ECB304439922669291ABEE548985C
:101ED00043D930843B900C61564993B80EE4409C42
:101EE0000319009178350FA2830F66C310A6491A13
:101EF0002761960C43320C4A5B12254D59D2372587
:101F0000D986448CB2248DB2641892A634CCD22CDB
:101F1000898621CA9234490395F4250DA68393C37B
:101F2000D1304839A483DAA06935ADA6D5B441D300
:101F30006A5A4DAB6983A6833A94E85802965030AA
:101F4000EEA5833124C31055D22889D22889862151
:101F5000D2D22889D2A8320C5125CA9228894A4A5D
:101F60004D4BA22C6C0B932C0AD531470096642C58
:101F7000EEA58331846914A64998844956D3D228A2
:101F8000A90CCA14A6519846C930284A9826595215
:101F90000BA3B69634C99238060000000000002456
:101FA0000027002A0000000000250028002B000068
:101FB0000000002300260029000404040404040493
:101FC00004020202020202030303030303010204E8
:101FD00008102040800102040810200102040810AB
:101FE00020000000080002010000030407000000B8
:101FF000000000000000062B11241FBECFEFD8E028
:10200000DEBFCDBF12E0A0E0B1E0EAE0FDE502C036
:1020100005900D92A838B107D9F728E0A8E8B2E0FA
:1020200001C01D92A933B207E1F71FE0CCEFDFE05A
:1020300004C02197FE010E94762ECB3FD107C9F73D
:102040000E94BA250C94832E0C9400008091D0023B
:102050008F5F8093D0028091D1029091D20201963D
:102060009093D2028093D1029091D0028091060188
:10207000891730F481E08093CF028AE08093D00208
:1020800008951092E2021092E102A8950895CF926D
:10209000DF92EF92FF920F931F93CF93DF936C0128
:1020A000EB017B01E40EF51E00E010E0CE15DF052C
:1020B00061F06991D601ED91FC910190F081E02DE4
:1020C000C6010995080F191FF1CFC801DF91CF9103
:1020D0001F910F91FF90EF90DF90CF90089508959A
:1020E00080E090E00895CF93DF93EC01862F683174
:1020F00009F45FC060F4B901843181F0873109F0DF
:10210000CEC050E081EA93E00E94731A50C069315A
:1021100009F472C0603209F44AC0C1C08C859D8543
:10212000AE85BF85892B8A2B8B2B71F4E881F981D1
:10213000A585B0E020EA36E841E050E00E94EF2BB0
:102140006C877D878E879F8710920F0310920E03F6
:1021500010921103109210031092170381E08093E4
:1021600019031092180361E082E10E94B42461E037
:1021700083E10E94B4248091B9008E7F8093B900DE
:102180008091B9008D7F8093B90088E48093B80076
:1021900085E48093BC0085E49AE1909313038093D7
:1021A000120386E49AE1909315038093140381E06F
:1021B00077C02C853D854E855F8560E074E284EFB5
:1021C00090E00E94022CDA01C9014097A109B109EF
:1021D000B695A795979587958093B8008E8990E0DE
:1021E0009595879591E090930D038093C10210928D
:1021F000110310921003DBCF20911003213208F05D
:1022000047C0809117038111FCCF8091C10292E0F9
:102210009093170391E0909319039FEF9093160307
:1022200010923B0320933A03EDEEF2E0AAE1B3E013
:1022300090E0291721F031913D939F5FFACF1092E2
:102240003C0390913C03880F892B80933C03809141
:102250001803813061F41092180380913C0380933D
:10226000BB008091BC0083FDF8CF85EC01C085EEFA
:102270008093BC00809117038230E1F380911603B4
:102280008F3F31F080911603803211F08091160358
:10229000109211031092100310920D0388CF80E06A
:1022A000DF91CF9108950F931F93CF93DF93EC01AC
:1022B000862F642F8C3270F48A3208F05DC0883229
:1022C00089F0893209F042C070E080E090E00E941D
:1022D000362552C08D32D1F0C8F194EB980F923070
:1022E00020F134C08E01015E1F4FD0E0F8018191D2
:1022F0008F018F3F39F0D03110F461E001C062E00E
:102300000E94E324DF5FD63189F736C0433018F0EE
:1023100082E090E002C085E090E0880F991F880F6E
:10232000991F05970197F1F727C08F73C80FD11D2B
:10233000411107C061E08F8D0E94E32460E08F8D22
:1023400011C062E08F8D0E94E32416C08034B0F08B
:10235000982F9F73FE01E90FF11D878D8F3F61F06C
:10236000903118F40E94B42407C00E948B2421E00D
:10237000892B09F420E02A8F81E001C080E0DF9101
:10238000CF911F910F910895CF92DF92EF92FF921C
:102390000F931F93CF93DF930EE214E0EE24E394A8
:1023A000F801E082CFE2D4E08EE0D82ED8828DE929
:1023B00091E00E94E3219FE5C92EF801C082D882F6
:1023C0008AEA91E00E94E32126E6F22EF801F082EB
:1023D000D88280910B0190910C010E941823F80182
:1023E000E0823EE1D32ED8828CEA91E00E94E32184
:1023F000F801C082D8828AEA91E00E94E321F801C4
:10240000F082D8828091090190910A010E941823DC
:10241000F801E0824EE2D42ED88289EB91E00E944E
:10242000E321F801F082D8828091070190910801A0
:102430000E941823F801E0825EE3E52EE88286EC34
:1024400091E00E94E321F801F082E8828091D502B8
:1024500090E00E94E82285E7F8018083E88280917D
:10246000D40290E0DF91CF911F910F91FF90EF90F8
:10247000DF90CF900C94E82281EB93E00E94A4219E
:102480000E94C41181EB93E00E947F218111F8CF5B
:102490000895DF92EF92FF920F931F93CF93DF93F4
:1024A0000EE214E0EE24E394F801E082CFE2D4E0FF
:1024B0008EE0D82ED88283ED91E00E94E32196E64B
:1024C000F92EF801F082D8828091110190E00E94EB
:1024D000E822F801E0822EE1D22ED88284EE91E04B
:1024E0000E94E321F801F082D8826091060170E039
:1024F00080E090E04AE00E94A722F801E0823EE2FC
:10250000D32ED88281EF91E00E94E321F801F0827E
:10251000D8828091D30290E00E94E822F801E08204
:102520004EE3E42EE88284E092E00E94E321F80189
:10253000F082E88280910501082E000C990BDF9152
:10254000CF911F910F91FF90EF90DF900C94E822B4
:1025500081EB93E00E94A4210E94491281EB93E059
:102560000E947F218111F8CF08952F923F924F92C0
:102570005F926F927F928F929F92AF92BF92CF9213
:10258000DF92EF92FF920F931F93CF93DF9300D0D0
:1025900000D01F92CDB7DEB77C016C0124E0C20EE3
:1025A000D11CFC01E158FF4F0190F081E02DC601E4
:1025B00009958C018E3F9F4F08F076C1F701EE57C9
:1025C000FF4F80818983470191E8890E911CF401B6
:1025D000F081FA83F701EE5AFF4F0190F081E02D70
:1025E000C6010995F701EA5AFF4F2A8120833196E7
:1025F0003981830F808337978081918147960F3F80
:10260000110509F020F50136110510F0B39606C04A
:102610000134110538F0F701EF58FF4F2081318167
:10262000820F931F9C012F5F3F4FF9014491442378
:1026300009F438C1FC01449150E00417150711F466
:10264000029640C0F9012491820F911DEBCFF70152
:10265000EB58FF4FA080B180A80EB91EBB82AA82A2
:1026600060E0C5010E94AC202A813B81280F391F00
:102670003B832A8362E0C5010E94AC2034E0A30EB4
:10268000B11C8017910760F3EA81FB81849190E08F
:10269000982F88273196E4918E2B009709F402C178
:1026A0000817190721F48A819B8103960BC0EA81E0
:1026B000FB813296E4912A813B812E0F311D3B83B1
:1026C0002A83E2CF009709F4EDC0F701EC5AFF4FDF
:1026D000FD83EC83918380831086709660818C816A
:1026E0009D810E94CC20EC81FD818683F701EB590E
:1026F000FF4F60818C819D810E94CC20782EEC81DF
:10270000FD8187835701FDE7AF0EB11CF501908174
:10271000EC81FD81928781E0911180E0EC81FD8167
:102720008387F701EA59FF4F5080652D8C819D8189
:102730000E94CC20682EF701E959FF4F1081612FCC
:102740008C819D810E94CC2089838FEF810F01E0D5
:1027500010E0180101C0220C8A95EAF7F701E85948
:10276000FF4F4080642D8C819D810E94CC204A9433
:10277000980101C0220F4A94EAF7482E421AEC81D0
:10278000FD81268112160CF088C05A9401C0000FFA
:102790005A94EAF76281601B660D62830381020D21
:1027A000F9810F1B402F4719EC81FD814383260FD0
:1027B000C6010E94AC1F882309F46FC0EC81FD8123
:1027C0001482158297012E593F4F3B832A8333E6AB
:1027D000E30EF11CEA81FB8160818C819D810E9466
:1027E000CC208983F70160818C819D810E94CC205F
:1027F000382EEC81FD81148165805980EC81FD814A
:102800002680211A818581110FC0628143818385D1
:10281000F5018083222D521408F4252D460D610FF9
:1028200000E0C6010E943D20521420F0521863942B
:1028300010E0E4CF150DEC81FD8114836582532CEB
:10284000EC81FD812680211A628143818285F50118
:102850008083222D521408F4252D460D610F00E0CF
:10286000C6010E943D20521420F05218639410E0DB
:10287000E7CF150DEC81FD811483658261E0CF0106
:102880000E94CC208111B5CFEC81FD818581871517
:102890000CF4A0CF8285F5018083F4018081840D42
:1028A000808302C0412CF9CF81E090E00F900F901F
:1028B0000F900F900F90DF91CF911F910F91FF908C
:1028C000EF90DF90CF90BF90AF909F908F907F90D0
:1028D0006F905F904F903F902F9008952F923F926E
:1028E0004F925F926F927F928F929F92AF92BF9220
:1028F000CF92DF92EF92FF920F931F93CF93DF93CC
:1029000081EB93E00E94A42187E1982E9FE0892E1D
:102910001CE120E6B22E36E7232E46E6A42EDDE1AA
:1029200059E6352ECBE28091D5028111A6C01092D6
:102930002E0480922F0481E192E00E94E3212091F5
:10294000DD023091DE02C901885C91098B3991402A
:10295000E0F4C901A0E0B0E09C01AD01285C3109C0
:1029600041095109A2ECBFEF0E94FD2B2AE931E099
:1029700040E050E00E94D02BDA01C901CF96A11DA2
:10298000B11D9093C0028093BF020EE121E445E1A6
:1029900060E081EB93E00E94AC1F882391F142E05C
:1029A00067E182E00E943D2441E067E18EE30E94FE
:1029B0003D2444E06BE182E00E943D2448E06BE16D
:1029C0008EE30E943D2400E02BE345E163E081EBD0
:1029D00093E00E943D202BE34DE163E081EB93E027
:1029E0000E943D2001E023E048E160E081EB93E0BC
:1029F0000E943D2023E048E160E481EB93E00E94E7
:102A00003D2027E04091BF0266E181E00E946623FD
:102A100087EE93E10E94E52182E00E9460231093FB
:102A20002E0410932F048091DD029091DE020E940B
:102A3000182390922E0410932F048AEA91E00E94AA
:102A4000E32181E00E94602382E994E00E94E52175
:102A50008091D0028A3020F48CE680932E0491C1BC
:102A60008091D0028A3008F436C18091D002843639
:102A700008F031C130922E0484C18091D5028823A0
:102A8000A9F022E24FE760E080E00E94662348E080
:102A900040932E0490922F0480E00E94602385E2F0
:102AA00092E00E94E32181E00E9460238CE790E0A5
:102AB0000E94E52110922E04C0932F048BE392E034
:102AC0000E94E32184E180932E04C0932F04C090E0
:102AD000B802D090B902E090BA02F090BB02A70110
:102AE0009601C701B6010E94712E882319F08FE369
:102AF00092E01AC026013701E89477F82FEF3FEFF4
:102B00004FE75FE7C301B2010E94712E81110FC030
:102B10002FEF3FEF4FE75FE7C301B2010E94A02C08
:102B200018162CF483E492E00E94D12172C02FEF9A
:102B30003FEF4FE75FE4C701B6010E94FF2D181673
:102B40001CF487E492E0F0CF2FEF3FEF4FE75FEC0C
:102B5000C701B6010E94A02C87FDF3CF20E030E032
:102B6000A901C701B6010E94A02C87FF09C06DE230
:102B70008DEA93E00E94B512F7FAF094F7F8F0941A
:102B80002AE037ED43EA5BE3C701B6010E94342C2B
:102B90002B013C010E941E2D6B017C010E944D2DDA
:102BA0009B01AC01C301B2010E94332C2B013C01FB
:102BB0004AE0C701B6010E94A7226EE28DEA93E0C7
:102BC0000E94B51220E030E040E251E4C301B201BE
:102BD0000E94042E2B013C010E941E2D6B017C01E2
:102BE000CB010E941823B60180E090E00E944D2D99
:102BF0009B01AC01C301B2010E94332C20E030E004
:102C000040E251E40E94042E0E941E2DCB010E943E
:102C100018238091E002882341F087E680932E04F8
:102C2000C0932F048BE492E006C0A0922E04C093C0
:102C30002F048EE492E00E94E32180910F01811124
:102C400012C02091B7022B5F2093B70200E04CE244
:102C500060E081EB93E00E943D208091B7028932D1
:102C600010F01092B70287E894E10E94E52181E01C
:102C700080932E040DE300932F0482E592E00E94DE
:102C8000E32180E380932E0400932F0489E592E0F2
:102C90000E94E321B0922E0400932F0480E692E07C
:102CA0000E94E32181EB93E00E947F2181113BCEC2
:102CB000DF91CF911F910F91FF90EF90DF90CF9018
:102CC000BF90AF909F908F907F906F905F904F904C
:102CD0003F902F9008958091D002843628F0809103
:102CE000D002883C08F44BC087E894E10E94E521BB
:102CF000B0922E0480922F048EE192E00E94E32194
:102D0000B0922E048FE180932F048091DF028823FC
:102D100009F4CCCE8091BE028A3058F464E7680F83
:102D200084590E9427248091BE028F5F8093BE0247
:102D3000BDCE8091BD02863148F48F5F8093BD0285
:102D40006EE7681B922D981B892F0BC08091BC02E7
:102D50008C3050F491E0980F9093BC0269E6680FB4
:102D60008F590E942724A2CE64E78CE60E94272474
:102D70001092BE021092BD021092BC0297CEA09299
:102D80002E04D0932F048091D1029091D2020E9400
:102D90001823AACFAF92BF92DF92EF92FF920F93C8
:102DA0001F93CF93DF93EC017B018B015C0182E0E9
:102DB000A80EB11CF801D1908F01CE010E94BA2B50
:102DC000D81621F06D2DCE010E94C22B2196CA1576
:102DD000DB0581F7C701DF91CF911F910F91FF9024
:102DE000EF90DF90BF90AF900895CF93DF93EB010A
:102DF0000E94BA2B8883CE01DF91CF9108950F9363
:102E00001F93CF93DF938C01EB010E94BA2B888331
:102E1000C80101960E94BA2B8983CE01DF91CF9120
:102E20001F910F9108951F93CF93DF93EC01162FFD
:102E30000E94BA2B181739F0612FCE01DF91CF9184
:102E40001F910C94C22BDF91CF911F9108958F9207
:102E50009F92AF92BF92CF92DF92EF92FF920F9329
:102E60001F93CF93DF938EE00E941F259093B602AD
:102E70008093B5020091B3021091B40280179107BC
:102E800074F08EE00E941F259093B6028093B502E5
:102E90008017910774F081E08093B2020CC08EE03D
:102EA0000E941F259093B6028093B5028017910768
:102EB00094F31092B2028091B202C091B502D09107
:102EC000B602882389F18091B10291E0980F909326
:102ED000B1029E01201B310B37FF03C031952195B4
:102EE0003109263031051CF08D5F8093B10280914D
:102EF000B102893138F12DEC3CEC4CEC5DE3609192
:102F0000AD027091AE028091AF029091B0020E942A
:102F1000342C6093AD027093AE028093AF02909315
:102F2000B0021092B1020EC01092B1028AE097ED89
:102F3000A3E2BCE38093AD029093AE02A093AF02F4
:102F4000B093B002C090AD02D090AE02E090AF025C
:102F5000F090B0026091B3027091B402072E000CA1
:102F6000880B990B0E944F2D4B015C01A701960124
:102F700060E070E080E89FE30E94332C9B01AC018D
:102F8000C501B4010E94042E4B015C01BE01DD0F9E
:102F9000880B990B0E944F2DA70196010E94042EC9
:102FA0009B01AC01C501B4010E94342C0E94172D75
:102FB0007093B4026093B302693E23E07207B4F0E9
:102FC0001092B4021092B3021092B6021092B5029F
:102FD0001092AD021092AE021092AF021092B002A7
:102FE0001092B10281E08093D50201C0CB01DF9144
:102FF000CF911F910F91FF90EF90DF90CF90BF90F6
:10300000AF909F908F900895CF92DF92EF92FF92B2
:10301000CF93CAE0C12CD12C760181E10E941F25FB
:1030200020910501820F911D27FD9A95BC01990FF2
:10303000880B990B0E944F2D9B01AC01C701B60173
:103040000E94342C6B017C01C15039F720E030E044
:1030500040E251E40E94A52C2AE038E240EA5BE31A
:103060000E94042E6093B8027093B9028093BA0252
:103070009093BB02CF91FF90EF90DF90CF90089597
:1030800080911101882359F061E08CE00E94B42402
:103090000E9427179093DE028093DD02089560E07E
:1030A0008CE00E94B4241092DE021092DD02109295
:1030B000DF0208958091E002882371F08091D302AD
:1030C000811103C06091DF0208C060E086E00E94C9
:1030D000B4246091DF0205C060E086E00E94B42461
:1030E00060E085E00C94B424CF9380910E01882396
:1030F00009F447C08091DC02811103C0CF910C9488
:103100006E14813099F481EB93E00E94A4210E9417
:103110006E1422E141E26EE280E00E941E2381EB08
:1031200093E00E947F218111F2CF15C1823099F482
:1031300081EB93E00E94A4210E946E1422E141E2FF
:103140006EE28FE20E941E2381EB93E00E947F21BA
:103150008111F2CF00C1833009F0FDC081EB93E013
:103160000E94A4210E946E1422E141E26EE28FE5EA
:103170000E941E2381EB93E00E947F218111F2CFF8
:10318000EAC08091DB02882309F4E5C080910D013B
:10319000811103C0CF910C943C128130D1F481EBAA
:1031A00093E00E94A4218091DA02811103C00E9461
:1031B0003C1202C00E94C41121E14FE760E080E0B0
:1031C0000E941E2381EB93E00E947F218111EBCFAF
:1031D000C2C08230D1F481EB93E00E94A42180919F
:1031E000D902811103C00E943C1202C00E94C41186
:1031F00021E14FE760E180E00E941E2381EB93E034
:103200000E947F218111EBCFA6C08330D1F481EBE6
:1032100093E00E94A4218091D802811103C00E94F2
:103220003C1202C00E94C41121E14FE760E280E03D
:103230000E941E2381EB93E00E947F218111EBCF3E
:103240008AC0843099F481EB93E00E94A4210E940B
:103250003C1220E14FE760E380E00E941E2381EBF7
:1032600093E00E947F218111F2CF75C08530D1F4A7
:1032700081EB93E00E94A421C0911301C11103C00E
:103280000E94A81202C00E94491221E14FE760E0AB
:1032900080E00E941E2381EB93E00E947F21811138
:1032A000EDCF59C08630D1F481EB93E00E94A42188
:1032B0008091D702811103C00E94A81202C00E940F
:1032C000491221E14FE760E180E00E941E2381EB7B
:1032D00093E00E947F218111EBCF3DC08730D1F474
:1032E00081EB93E00E94A421C0911301C11103C09E
:1032F0000E94A81202C00E94491221E14FE760E239
:1033000080E00E941E2381EB93E00E947F218111C7
:10331000EDCF21C08830D1F481EB93E00E94A4214D
:103320008091D602811103C00E94A81202C00E949F
:10333000491220E14FE760E380E00E941E2381EB09
:1033400093E00E947F218111EBCF05C0893019F4F1
:10335000CF910C94A812CF9108951F920F920FB69F
:103360000F9211242F933F934F935F936F937F930B
:103370008F939F938091E1029091E2020196909346
:10338000E2028093E1028091E1029091E202609179
:1033900007017091080142EC51E0649F9001659F24
:1033A000300D749F300D11248217930720F0109276
:1033B000E2021092E1029F918F917F916F915F9154
:1033C0004F913F912F910F900FBE0F901F90189526
:1033D0000895CF92DF92EF92FF920F931F93CF93B6
:1033E000DF936C017A018B01C0E0D0E0CE15DF05E0
:1033F00081F0D8016D918D01D601ED91FC91019084
:10340000F081E02DC6010995892B11F02196EECFB0
:103410007E01C701DF91CF911F910F91FF90EF9037
:10342000DF90CF90089585ED8093BC008091BC0023
:1034300084FDFCCF10921703089540917E03262F40
:1034400030E0240F311D21323105DCF420911703C7
:103450002430C9F4FC0180E090E0861758F43091E4
:103460007E032191DC01A25ABC4FA30FB11D2C9306
:103470000196F3CF80917E03680F60937E0380E016
:10348000089581E0089582E00895089508950895CB
:10349000E0910F0380910E03E81730F4F0E0E25C56
:1034A000FC4F808190E008958FEF9FEF08959091F9
:1034B0000F0380910E03981750F4E92FF0E0E25CBF
:1034C000FC4F208130E09F5F90930F0302C02FEFED
:1034D0003FEFC901089580910E0390E020910F0302
:1034E000821B91090895CF92DF92EF92FF920F9382
:1034F0001F93CF93DF937C01CB018A0120910D03B1
:10350000222389F0EB016B01C40ED51ECC15DD051D
:1035100069F06991D701ED91FC910190F081E02D66
:10352000C7010995F3CF642F0E941D1AC801DF91CE
:10353000CF911F910F91FF90EF90DF90CF90089562
:10354000CF93DF931F92CDB7DEB7698320910D0330
:103550002223D1F020911003203240F021E030E00E
:10356000FC013383228380E090E015C08091110339
:10357000E82FF0E0E351FD4F998190838F5F8093B6
:1035800011038093100305C061E0CE0101960E94F3
:103590001D1A81E090E00F90DF91CF91089580E0B7
:1035A0000895DC011A96ED91FC911B9720E030E024
:1035B0000994DC011696ED91FC91179720E030E01C
:1035C00040E069E10994DC011696ED91FC911797B2
:1035D00020E030E040E068E109949A01DC011696B1
:1035E000ED91FC911797462F67E10994EF92FF92B6
:1035F0000F931F93CF93DF931F92CDB7DEB77C015C
:103600008B01D8016C916731E1F078F46531A0F15C
:10361000F80141814983D7011696ED91FC911797E6
:1036200020E030E0C701099524C06A31A8F06E3F60
:1036300019F5F8014181498369E2C7010E94D11A55
:1036400018C0F80181818983AE014F5F5F4F61E04F
:10365000C7010E94ED1A0DC00F5F1F4FD7011696CC
:10366000ED91FC91179720E030E040E0C70109950B
:10367000C8CF0E5F1F4FC5CF0F90DF91CF911F9125
:103680000F91FF90EF900895462FDC011696ED9173
:10369000FC91179720E030E066E10994462FDC01A9
:1036A0001696ED91FC91179720E030E065E10994C2
:1036B000EF92FF920F931F93CF93DF93EC01142FA0
:1036C00079016D30A9F118F46B3039F15FC06E30BB
:1036D00009F441C06F3009F059C00E94E31AF701A4
:1036E00083810C89F8E08F9F000D112460E4CE01E6
:1036F0000E944E1B602F62956F706061CE010E9428
:103700004E1B602F6F70CE010E94441BF701648135
:10371000606BCE010E94441B29C0411103C067E2C7
:1037200071E002C062E271E0CE010E94F61A71C03F
:10373000411108C06BE171E00E94F61AE881F9813D
:10374000828907C064E171E00E94F61AE881F9817C
:1037500083898C8B5EC00E94E31A61E8CE010E94CF
:103760004E1B612FCE010E94441B0CC0F70140810B
:1037700051816281660F660F660FCE010E94ED1ABD
:103780001150A1F7CE010E94D91A43C0693031F41B
:1037900081E691E0998388831C8A3BC06A30B9F541
:1037A000EA85FB8520E030E040E068E2CE01099543
:1037B000EE81FF8120E030E040E064E1CE01099538
:1037C00041E06BE4CE010E94D11AE881F981448185
:1037D00069E2CE010E94D11A40E06BE4CE010E9462
:1037E000D11AE881F981448169E2CE010E94D11A9F
:1037F00041E06BE4CE010E94D11AE881F981458154
:1038000069E2CE010E94D11A6CE271E08DCF80E0B6
:1038100001C081E0DF91CF911F910F91FF90EF9058
:103820000895DC011896ED91FC91199720E030E0A5
:1038300040E069E10994DC011896ED91FC9119973B
:1038400020E030E040E068E10994FC016623D9F112
:103850006A30C9F1818D811124C06C3F20F085E070
:10386000818F61701AC0683F20F084E0818F63709F
:1038700014C0603F20F083E0818F67700EC0603E0F
:1038800020F082E0818F6F7008C0603C20F081E002
:10389000818F6F7102C070E01BC070E0738B628B10
:1038A00015C08150818F2289338996E0220F331F02
:1038B0009A95E1F76F73A901462BBA01738B628B5E
:1038C000811104C005C06FEF7FEF02C06EEF7FEF84
:1038D000CB010895662329F06A3019F0862F90E015
:1038E00008958FEF9FEF08950F93DC01DF963C91D1
:1038F000DF97431BD596ED91FC91D69709950F91D3
:103900000895CF93DF93FC01A081B18193AD892FFE
:10391000880F880F880F86AF50968C915097803211
:1039200008F08FE1880F880F880F85AF24AD822FB4
:10393000880F880F880F87AF51963C915197422F7F
:1039400050E0490F511D632F70E06417750714F4A0
:10395000932F921BEF01C05CDF4F8883219628E0F4
:10396000929F800D11248883219680EF888354963E
:103970008D919C915597813F910508F48883ED5B6B
:10398000FF4F56968C918083DF91CF910895EF92EF
:10399000FF920F931F93CF93DF93EC01742F7770F7
:1039A000E1E0F0E0072E01C0EE0F0A94EAF73E2FA7
:1039B0007C0189E7E80EF11CD7018C91823028F454
:1039C0001E2F813019F430E001C010E050E0487F34
:1039D00089AD9AADA881B9815096FC91F49FD00130
:1039E000F59FB00D1124A60FB11DA80FB91F01112D
:1039F0000BC08C91812B83278D932150D1F71CC054
:103A0000110F330F2223C1F09C91912B93279C938C
:103A10007F5F777021507111F3CF8DADA80FB11D6D
:103A2000F7018081823020F4813021F031E002C042
:103A300031E0E8CF11E0E6CFDF91CF911F910F91F8
:103A4000FF90EF90089580E00895CF93DF931F9249
:103A5000CDB7DEB76983BE016F5F7F4F0E948224BE
:103A60000F90DF91CF910895EF92FF921F93CF9324
:103A7000DF93EC01162F7A010E941B1C60E4CE013B
:103A80000E94251DE885F9859701412F67E1CE0148
:103A90000995CE01DF91CF911F91FF90EF900C948B
:103AA000111CEF92FF921F93CF93DF93EC01142F21
:103AB0007901663121F128F46431E9F1653149F089
:103AC00056C0683109F44FC0F0F0693109F444C0C0
:103AD0004EC080913D03882319F0CE010E94111C35
:103AE000CE010E941B1C60E0CE010E94251D612FAB
:103AF000CE010E94251D81E080933D0339C0642FD3
:103B00000E94251D32C080913D03882319F0CE010B
:103B10000E94111CA701193148F068E1CE010E94F2
:103B2000341D185188E1E80EF11CF4CF612FCE014D
:103B30000E94341D18C08E898F3F11F488E78E8B48
:103B4000E885F9859701412F64E1CE01DF91CF919E
:103B50001F91FF90EF90099480913D03882319F005
:103B6000CE010E94111C10923D0381E001C080E053
:103B7000DF91CF911F91FF90EF9008951F920F92C8
:103B80000FB60F9211242F933F934F935F936F9330
:103B90007F938F939F93AF93BF93EF93FF93E091A6
:103BA0000201F09103010995FF91EF91BF91AF914F
:103BB0009F918F917F916F915F914F913F912F9145
:103BC0000F900FBE0F901F9018951F920F920FB677
:103BD0000F9211242F933F934F935F936F937F9393
:103BE0008F939F93AF93BF93EF93FF93E091000167
:103BF000F09101010995FF91EF91BF91AF919F91D4
:103C00008F917F916F915F914F913F912F910F9085
:103C10000FBE0F901F9018951F920F920FB60F9224
:103C200011242F933F934F935F936F937F938F93C1
:103C30009F93AF93BF93EF93FF938091C8029091AE
:103C4000C9028093B2008091CB029091CC02A091E6
:103C5000CD02B091CE020196A11DB11D8093CB0281
:103C60009093CC02A093CD02B093CE028091CB0270
:103C70009091CC02A091CD02B091CE024091C402AD
:103C80005091C5026091C6027091C70284179507D2
:103C9000A607B70710F18091CA0281111EC081E00A
:103CA0008093CA028091CB029091CC02A091CD0268
:103CB000B091CE02841B950BA60BB70B8093CB0261
:103CC0009093CC02A093CD02B093CE02E091C202B9
:103CD000F091C30209951092CA02FF91EF91BF9132
:103CE000AF919F918F917F916F915F914F913F9194
:103CF0002F910F900FBE0F901F9018951F920F924B
:103D00000FB60F9211242F933F934F935F936F93AE
:103D10007F938F939F93AF93BF93EF93FF93809184
:103D2000B900887F803609F49CC068F5883209F4B0
:103D30005BC090F4803109F454C038F4882309F44E
:103D4000F6C0883009F44DC0F6C0883109F44CC083
:103D5000803209F45DC0EFC0803409F468C048F4D3
:103D6000803309F455C0883309F0E5C08093160309
:103D7000D8C0803509F44FC0883509F45DC0883457
:103D800009F0D9C0D6C0883909F4C7C0A8F488376B
:103D900009F467C038F4883609F463C0803709F441
:103DA00060C0C9C0883809F4B8C0803909F45FC060
:103DB000803809F0C0C05BC0803B09F486C038F48D
:103DC000803A09F466C0883A09F47FC0B4C0803CE8
:103DD00009F4A7C0883C09F4A4C0883B09F48AC050
:103DE000AAC080913C0310C090913B0380913A039C
:103DF000981770F5E0913B0381E08E0F80933B03B1
:103E0000F0E0E65EFC4F80818093BB0085EC86C0CD
:103E1000809316038EC0E0913B0381E08E0F809368
:103E20003B038091BB00F0E0E65EFC4F8083909105
:103E30003B0380913A036EC0E0913B0381E08E0F1B
:103E400080933B038091BB00F0E0E65EFC4F8083F3
:103E50008091190381116DC081E08093180384EA79
:103E600061C083E0809317031092A003CFCF8091AD
:103E7000A003803208F051C0E091A00381E08E0FD2
:103E80008093A0038091BB00F0E0E058FC4F80835A
:103E9000BDCF85EC8093BC00109217038091A003E6
:103EA000803230F4E091A003F0E0E058FC4F108243
:103EB0006091A00370E0E0911403F091150380E895
:103EC00093E009951092A00336C084E08093170315
:103ED00010927F0310927E03E0911203F09113037E
:103EE000099580917E03811105C081E080937E0356
:103EF00010925E03E0917F0381E08E0F80937F0339
:103F0000F0E0E25AFC4F80818093BB0090917F03E8
:103F100080917E03981708F479CF85E88093BC00E0
:103F20000AC085EC8093BC001092170304C0109265
:103F300016030E94131AFF91EF91BF91AF919F91C9
:103F40008F917F916F915F914F913F912F910F9042
:103F50000FBE0F901F9018950F93FC01EA5BFF4F67
:103F6000308131965081451728F4301730F004170E
:103F700020F010C03017D8F30DC0FC01EC5BFF4FF0
:103F8000308131968081681738F4321740F081E033
:103F9000261730F080E004C03217C8F3FBCF81E071
:103FA0000F9108952F923F924F925F926F927F925E
:103FB0008F929F92AF92BF92CF92DF92EF92FF9239
:103FC0000F931F93CF93DF93EC014C0184E4880E91
:103FD000911CF4011082329720805E01F5E4AF0E4F
:103FE000B11CF5012082359730806E01F6E4CF0ECA
:103FF000D11CF6013082359740807E01F7E4EF0E48
:10400000F11CF7014082349610813297608031961E
:10401000708032975080012F262D472D652DCE01BF
:104020000E94AC1FCD58DF4F811102C0188212C010
:1040300081E08883552011F0F4015082621410F45D
:10404000F5016082371410F4F6017082141510F433
:10405000F7011083DF91CF911F910F91FF90EF90A7
:10406000DF90CF90BF90AF909F908F907F906F9098
:104070005F904F903F902F9008950F93DC01802F19
:10408000FD01ED58FF4F9081992309F463C022236D
:1040900009F460C0223048F0023019F46F5F621BEF
:1040A00004C0033011F44F5F421B082F0170FD0163
:1040B00080FD25C0EA5BFF4F8081481708F44AC0A5
:1040C00031968081481708F045C03297908131972A
:1040D0008081260F261730F4691718F42FEF290F67
:1040E00003C0682F6917B0F58217A0F5681708F4A8
:1040F000682F291708F4922F292F261B22C0EC5B6A
:10410000FF4F8081681730F131968081681710F574
:104110003296908131978081240F241730F449170B
:1041200018F42FEF290F03C0482F491798F482176E
:1041300088F4481708F4482F291708F4922F292FDC
:10414000241BD796ED91FC91D8970480F581E02D42
:10415000CD0109950F910895FC01E60FF11D8491A1
:1041600090E0982F88273196E4918E0F911D089545
:10417000FC01A081B18150969C9143AD949FA00118
:10418000112483E0440F551F8A95E1F760E070E049
:1041900081AD92AD0C947C2EDC0118964C91189751
:1041A000ED91FC911197249130E0042E02C03595D9
:1041B00027950A94E2F7842F860F883010F4E22FB7
:1041C0000DC031961196FC93EE93E49198E0941B08
:1041D00001C0EE0F9A95EAF7E22B885018968C935F
:1041E00081E090E001C0880F6A95EAF781508E2344
:1041F0000895462FDC011496ED91FC91159720E06F
:1042000030E06BE00994CF93DF93EC016CAFEFA942
:10421000F8AD0190F081E02D0995EFA9F8AD02808D
:10422000F381E02DCE01DF91CF910994DC0114964A
:10423000ED91FC91159720E030E040E060E10994B9
:10424000AF92BF92CF92DF92EF92FF920F931F93A4
:10425000CF93DF9300D000D01F92CDB7DEB78C0193
:10426000DC01DB96AC90DB97DC96EC90DC97ED9173
:10427000FC91B188FE2CC12CD12CD801ED91FC9180
:1042800011978089D9964D915C91DA971C82FD82B5
:104290008B83B8E08B9FC00111248C9D90018D9D74
:1042A000300D9C9D300D1124CA01820F931F9A83FB
:1042B0008983D8011496ED91FC9115979E012F5F8B
:1042C0003F4F41E06FE0C8010995F3948F2D8E199F
:1042D0008A1528F4BFEFCB1ADB0AFB1470F20F909B
:1042E0000F900F900F900F90DF91CF911F910F9132
:1042F000FF90EF90DF90CF90BF90AF9008951F9305
:10430000CF93DF93EC010E9420211CAD8BAD180FE1
:10431000E881F9818189181728F0CE010E941621C1
:1043200080E00EC0FE01E658FF4F8081882319F01F
:10433000CE010E94B820612FCE010E94032181E0AE
:10434000DF91CF911F910895CF93DF93EC01FC0192
:10435000E658FF4F8081882319F0CE010E94B820D3
:1043600060E0CE01DF91CF910C9403210F939091E7
:10437000F7036917A0F09091F803691780F4909102
:10438000F503891760F09091F603891740F4462FE2
:10439000682F00E021E081EB93E00E943D200F9127
:1043A0000895009769F0FC0101900020E9F731972A
:1043B000AF01481B590BBC018DEA93E00C944710E8
:1043C00080E090E008950C94D121CF93DF93209169
:1043D000FD033091FE032817390709F4AAC0EC0148
:1043E0009093FE038093FD03FC01849180930D0460
:1043F0003196E491E0930E04FE013296E491E0934D
:104400000F04FE013396E491E0931004FE0134960C
:10441000E491E0931104FE013596E491E0931204D7
:10442000FE013696E491E0931304FE013796E49181
:10443000E0931404FE013896E491E0931504FE0124
:104440003996E491E0931604FE013A96E491E093E4
:104450001704FE013B96E491E0931804FE013C969C
:10446000E491E0931904FE013D96E491E0931A046F
:10447000FE013E96E491E0931B04FE013F96E49119
:10448000E0931C04FE017096E491E0931D0461E149
:10449000CE010E94AC2090931F0480931E0463E120
:1044A000CE010E94AC20909321048093200465E10A
:1044B000CE010E94AC20909323048093220480912B
:1044C000FD039091FE03892BA1F180911A04809342
:1044D000260440911B0440932704909125049923BE
:1044E00041F1913069F490911C04891714F4909370
:1044F000260480911D048417E4F48093270419C0D6
:104500003091170420911904082E000C990B622F8A
:10451000022E000C770B630F711D37FD7A958617FD
:1045200097071CF4320F30932604241714F42093B9
:104530002704DF91CF910895E091B503F091B60380
:1045400020E030E0482F6EE081EB93E009948F92F9
:104550009F92AF92BF920F931F93CF93DF93CDB7EC
:10456000DEB7A1970FB6F894DEBF0FBECDBF19A27C
:10457000423008F44AE08E010F5D1F4F842E912CCB
:10458000A12CB12CA50194010E94022CE62FB901A7
:10459000CA0101501109EA3014F4E05D01C0E95C80
:1045A000D801EC93232B242B252B61F7C8010E9403
:1045B000D121A1960FB6F894DEBF0FBECDBFDF911B
:1045C000CF911F910F91BF90AF909F908F900895C2
:1045D000CF92DF92EF92FF92CF93DF936C01990F0E
:1045E000EE08FF08F7FE19C06DE28DEA93E00E9425
:1045F000B512EC0166277727CB016C197D098E096E
:104600009F094AE00E94A7228C0F9D1FDF91CF9146
:10461000FF90EF90DF90CF9008954AE0C701B60178
:10462000DF91CF91FF90EF90DF90CF900C94A72275
:10463000BC0180E090E04AE00C94A722DF92EF9268
:10464000FF920F931F93CF93DF93C82FD62FE42EA3
:10465000D22E162F120FF82EF40E012F2F2D462FCB
:10466000682F81EB93E00E94AC1F882309F100E0E2
:104670002E2D4D2F6C2F81EB93E00E943D2001E009
:104680002D2D4D2F6C2F81EB93E00E943D206FEF7D
:104690006F0D2D2D4D2F81EB93E00E943D204FEFAC
:1046A000410F00E02E2D6C2F81EB93E00E943D2006
:1046B000DF91CF911F910F91FF90EF90DF900895C0
:1046C000833008F081E080932A040895FF920F93CD
:1046D0001F93CF93DF93182FC62FF42ED62FD20F10
:1046E000282F240F0D2F462F682F81EB93E00E9477
:1046F000AC1F882361F0DC1751F000E02F2D4C2F08
:10470000612F81EB93E00E943D20CF5FF4CFDF91DA
:10471000CF911F910F91FF900895833081F028F47D
:10472000813099F08230A1F008958730A9F0883067
:10473000B9F08430D1F4809180008F7D03C08091E6
:1047400080008F7780938000089584B58F7702C0B2
:1047500084B58F7D84BD08958091B0008F7703C0AC
:104760008091B0008F7D8093B00008953FB7F8949A
:104770008091350890913608A0913708B09138089B
:1047800026B5A89B05C02F3F19F00196A11DB11DAC
:104790003FBFBA2FA92F982F8827820F911DA11DE7
:1047A000B11DBC01CD0142E0660F771F881F991F24
:1047B0004A95D1F70895FF920F931F93CF93DF93FC
:1047C000C82FD62F142FF22E00FF0CC0622F6D1BA6
:1047D000842F8C0F0E94B6216F2D6C1B8D2F810FA3
:1047E0000E94B62101FF0CC06F2D6D1B812F8C1B09
:1047F0000E94B6216F2D6C1B812F8D1B0E94B6214C
:1048000003FF0CC06F2D6D0F812F8C0F0E94B621FE
:104810006F2D6C0F8D2F810F0E94B62102FF11C0EA
:104820006F2D6D0F812F8C1B0E94B6216F2D6C0F89
:10483000812F8D1BDF91CF911F910F91FF900C94D1
:10484000B621DF91CF911F910F91FF900895CF93E3
:10485000DF93C82FD62F681710F4C62FD82FDF3F4D
:1048600009F4DEEFDC1730F062E18C2F0E94B621F4
:10487000CF5FF8CFDF91CF910895CF92DF92EF9283
:10488000FF920F931F93CF93DF93F82EE62EC42E43
:1048900003E0060F23E0280F4EEF460F6EEF680F80
:1048A00081EB93E00E94AC1F882319F10C2D2E2D73
:1048B0004F2D62E080E00E94DB23C0E012E08CEF2D
:1048C000D82EDFEFCF5F8C2F880F8F5FD80F0C2D86
:1048D0002E2D4F2D612F8C2F0E94DB23C11748F402
:1048E000D7FD05C0D394D394DD0D11E0EBCF12E0DA
:1048F000E9CFDF91CF911F910F91FF90EF90DF9063
:10490000CF9008959B01DC011896ED91FC911997C9
:1049100041E067E10994CF93DF93282F30E0F9015C
:10492000EF51F04E8491F901E353F04ED491F90127
:10493000E754F04EC491CC2391F081110E948D2355
:10494000EC2FF0E0EE0FFF1FE155F04EA591B49172
:10495000EC91ED2381E090E021F480E002C080E062
:1049600090E0DF91CF9108951F93CF93DF93282F8D
:1049700030E0F901EF51F04E8491F901E353F04E2C
:10498000D491F901E754F04EC491CC23C1F0162F15
:1049900081110E948D23EC2FF0E0EE0FFF1FEB55ED
:1049A000F04EA591B4919FB7F894111104C08C9169
:1049B000D095D82302C0EC91DE2BDC939FBFDF9112
:1049C000CF911F910895CF93DF9390E0FC01E353C3
:1049D000F04E2491FC01E754F04E8491882361F15C
:1049E00090E0880F991FFC01E556F04EC591D491D7
:1049F000FC01EB55F04EA591B491611109C09FB730
:104A0000F8948881209582238883EC912E230BC013
:104A1000623061F49FB7F8948881322F30958323F8
:104A20008883EC912E2B2C939FBF06C08FB7F894F0
:104A3000E8812E2B28838FBFDF91CF9108958E3090
:104A400008F08E508770806480937C0080917A009B
:104A5000806480937A0080917A0086FDFCCF8091FB
:104A600078002091790090E0922B08958F929F9288
:104A7000AF92BF92CF92DF92EF92FF926B017C01D7
:104A80000E94B6234B015C01C114D104E104F1047E
:104A9000F1F00E94B623DC01CB0188199909AA091B
:104AA000BB09883E9340A105B10570F321E0C21A0D
:104AB000D108E108F10888EE880E83E0981EA11C59
:104AC000B11CC114D104E104F10419F7DDCFFF904A
:104AD000EF90DF90CF90BF90AF909F908F90089510
:104AE0001F920F920FB60F9211242F933F938F9323
:104AF0009F93AF93BF938091300890913108A0911C
:104B00003208B09133083091340823E0230F2D3759
:104B100020F40196A11DB11D05C026E8230F0296C1
:104B2000A11DB11D20933408809330089093310863
:104B3000A0933208B09333088091350890913608DD
:104B4000A0913708B09138080196A11DB11D80933E
:104B5000350890933608A0933708B0933808BF9172
:104B6000AF919F918F913F912F910F900FBE0F901A
:104B70001F901895789484B5826084BD84B5816057
:104B800084BD85B5826085BD85B5816085BD809118
:104B90006E00816080936E00109281008091810090
:104BA0008260809381008091810081608093810088
:104BB000809180008160809380008091B10084604A
:104BC0008093B1008091B00081608093B0008091AB
:104BD0007A00846080937A0080917A00826080936A
:104BE0007A0080917A00816080937A0080917A00C7
:104BF000806880937A001092C10061E08CE00E948E
:104C0000E32461E086E00E94E32461E085E00E9405
:104C1000E32461E08DE00E94E32460E080E10E94F3
:104C2000E32460E081E10E94E32460E08EE00E94E2
:104C3000E32462E082E00E94E32462E084E00E94D8
:104C4000E32462E083E00E94E32461E08CE00E94C0
:104C5000B42461E086E00E94E32460E086E00E94E4
:104C6000B42461E085E00E94E32460E085E00E94D6
:104C7000B424C5E061E08DE00E94B42464E670E0F5
:104C800080E090E00E94362560E08DE00E94B42430
:104C900064E670E080E090E00E943625C15051F754
:104CA0006BE071E080E090E00E94FF1669E071E047
:104CB00084E090E00E94FF1667E071E088E090E0F9
:104CC0000E94FF1665E071E08CE090E00E94F5160E
:104CD00063ED72E08DE090E00E94F51666E071E011
:104CE0008EE090E00E94F51660E171E08FE090E0C8
:104CF0000E94F516E091B503F091B60320E030E094
:104D000040E06AE081EB93E0099581EB93E00E943B
:104D1000A42181EB93E00E947F21C82F8111F9CF5C
:104D200060E081EB93E00E94032160E081EB93E07F
:104D30000E94F920809110010E949C2285E29CE152
:104D400090932D0480932C0487E894E10E94E52140
:104D500081E080930A0410922E048FE080932F0448
:104D600087E692E00E94E32110922E0480E2809375
:104D70002F048AE792E00E94E32181EB93E00E94F6
:104D80007F21D0E368E5C62E62E0D62EE12CF12C1F
:104D90000E9404180E9427179093DE028093DD0280
:104DA00010922E04D0932F04DC0123EE3FEF4FEF3F
:104DB0005FEF0E94EF2BA70196010E94D02BCA0142
:104DC000B901615C7F4F8F4F9F4F8C2F0E94B6219E
:104DD00081EB93E00E94202181EB93E00E94162159
:104DE000CF5FCF33A9F621E430E130930101209366
:104DF0000001809169008C7F826080936900E89A4D
:104E0000309303012093020180916900837F8860C1
:104E100080936900E99A84B7877F84BF809160009E
:104E200088618093600081E38093600080916000DE
:104E30008064809360002FB7F8948091300890913F
:104E40003108A0913208B09133082FBF8093E70258
:104E50009093E802A093E902B093EA0288EE93E00F
:104E6000A0E0B0E08093C4029093C502A093C60274
:104E7000B093C70286E290E19093C3028093C2028E
:104E8000809170008E7F809370008091B0008C7F45
:104E90008093B0008091B100877F8093B1008091B2
:104EA000B6008F7D8093B600809170008D7F8093D7
:104EB00070008091B10084608093B1008091B10056
:104EC0008C7F8093B10086E090E09093C90280933C
:104ED000C80299E0692E20E0C22E20E0D22E08EC14
:104EE00010E032E6E32E32E0F32E4AE3942E5BE24A
:104EF000852E83E0782E809112012091E10230917D
:104F0000E20290E0281739070CF004C38091EC020C
:104F10008823E1F01092EB021092DF0281E080938F
:104F200011018093E0020E94401860E081EB93E061
:104F30000E94F920C0EFD0E00E9427179093DE0274
:104F40008093DD022197C1F71092EC020E94741841
:104F50002FB7F8948091300890913108A0913208D1
:104F6000B09133082FBF4091E7025091E802609161
:104F7000E9027091EA02841B950BA60BB70B883BE4
:104F80009B40A105B105D0F02FB7F894809130086F
:104F900090913108A0913208B09133082FBF8093CF
:104FA000E7029093E802A093E902B093EA020E941C
:104FB000041880E10E941F2580930F0180910E014B
:104FC000882309F4ABC082E00E948B24892BD1F5A1
:104FD00082E00E948B24892B69F50E9474188091CD
:104FE000E5029091E60201969093E6028093E50235
:104FF000099770F3809110018F3F19F08B5F8093B8
:10500000100190922E0480922F046091100170E0A4
:1050100080E090E04AE00E94A72281EB93E00E94AA
:10502000202181EB93E00E941621809110010E94C3
:105030009C22CECF1092E6021092E5028091DC0213
:105040008F5F3EC083E00E948B24892BE1F583E0D3
:105050000E948B24892B69F50E9474188091E502C7
:105060009091E60201969093E6028093E5020997FB
:1050700070F380911001863018F0855080931001F4
:1050800090922E0480922F046091100170E080E0D5
:1050900090E04AE00E94A72281EB93E00E94202149
:1050A00081EB93E00E941621809110010E949C22C6
:1050B000CECF1092E6021092E5028091DC02815080
:1050C0008093DC0234C184E00E948B24892B09F098
:1050D0002EC184E00E948B24892B19F40E9474183D
:1050E000F8CF8091DC02823031F0833081F0813062
:1050F00009F01DC112C1A8958091120190E0909312
:10510000E2028093E10281E08093EC0210C1909171
:10511000E00281E089278093E00209C18091DB02EF
:10512000882309F404C14090DA025090D902A0907B
:10513000D802B090D702D091D602C42DC50DCA0DA9
:10514000CB0DCD0F82E00E948B24892B91F5C111EC
:1051500004C080910D018F5F36C0442031F08091F2
:105160000B0190910C01059638C0552031F08091CB
:10517000090190910A0105963CC0AA2031F0809166
:10518000070190910801019640C0BB2021F0809159
:1051900006018F5F44C0DD2329F0809105018F5FF8
:1051A000809305016EE170E080E090E00E9436257A
:1051B000BEC083E00E948B24892BD9F5C11106C0A3
:1051C00080910D01815080930D01ECCF442051F06E
:1051D00080910B0190910C01059790930C018093A5
:1051E0000B01E0CF552051F08091090190910A0107
:1051F000059790930A0180930901D4CFAA2051F01A
:105200008091070190910801019790930801809384
:105210000701C8CFBB2031F08091060181508093F7
:105220000601C0CFDD2309F4BDCF80910501815077
:10523000B7CF84E00E948B24892B09F078C084E0EA
:105240000E948B24892B19F40E947418F8CFE091E6
:105250000D018E2FEE0F990BAA0BBB0B8A30910517
:1052600008F065C0FC01EC5CFF4F0C94762E909129
:10527000DA0281E089278093DA026BE071E080E056
:1052800090E015C09091D90281E089278093D902DE
:1052900069E071E084E090E00AC09091D80281E07A
:1052A00089278093D80267E071E088E090E00E944F
:1052B000CA163DC01092D5021092D40281E004C0FB
:1052C0009091110181E089278093110130C0909164
:1052D000D70281E089278093D702609106018EE092
:1052E00090E015C06091D30281E068276093D302FB
:1052F0008DE090E00E94C22B1AC09091D60281E00E
:1053000089278093D602609105018CE090E00E948D
:1053100013170DC081E080930D0190910E01982725
:1053200090930E019091DB0289278093DB0280919C
:10533000DC02843014F01092DC028091DC0287FDE4
:105340007092DC0280910D018A3014F010920D01F0
:1053500080910D0187FD60920D0180910B0190916C
:105360000C01883C910520F410930C0100930B0173
:1053700080910B0190910C018336924020F0F092C5
:105380000C01E0920B018091090190910A0120919A
:105390000B0130910C018217930720F490930C01BC
:1053A00080930B018336924020F0F0920A01E09244
:1053B00009018091090190910A01883C910520F42E
:1053C00010930A010093090180910B0190910C0147
:1053D0002091090130910A012817390720F4909390
:1053E0000A01809309018091070190910801883E8C
:1053F000934020F010920801109207018091D5028D
:10540000882321F01092E002109211018091D502C0
:105410008111BFC08091E002882309F4BAC0809155
:10542000DF02882309F4B5C00E9440180E945A1870
:105430008091DD029091DE022091090130910A01F4
:105440008217930740F02091E002222321F081E0AF
:105450008093EB0215C020910B0130910C012817AD
:10546000390750F4892B41F080911101882321F0F4
:105470008091E002811104C01092EB021092DF02D1
:105480008091EB02882309F47DC0A8958091CF021A
:105490008823D1F01092CB021092CC021092CD0250
:1054A0001092CE021092CA028091C8029091C90255
:1054B0008093B200809170008160809370001092A0
:1054C000CF0281E0809304018091D0028A3009F0FC
:1054D0006FC080910401882309F46AC08091DD02C5
:1054E0009091DE029093E4028093E3021092040113
:1054F0002091DD023091DE0280910B0190910C0130
:105500008217930720F481E08093DF023BC0109262
:10551000DF0238C0809112012091E1023091E20255
:1055200090E02817390774F11092E00210921101EF
:105530000E945A180E944018609110018FE090E07C
:105540000E94131761E081EB93E00E94F92081E053
:105550008093EC0280916400816080936400F894F1
:1055600083B7817F846083BF83B7816083BF789472
:10557000889583B78E7F83BF7894809164008E7FF7
:1055800080936400C114D10409F4B5CC0E940000DA
:10559000B0CC809170008E7F809370001092D20208
:1055A0001092D1021092D00281E08093CF023CCFC2
:1055B0009091D0028091060198139ACF8091DD02DC
:1055C0009091DE022091E3023091E402821B930B62
:1055D0008B3F9F4F0CF48CCF8091E002882371F0B9
:1055E00021E02093D402A8958091120190E090933D
:1055F000E2028093E1022093EC027ACF80911201C3
:1056000090E09093E2028093E10272CFCF931092E8
:10561000A4031092A30388EE93E0A0E0B0E080938F
:10562000A5039093A603A093A703B093A8038DE7C7
:1056300091E09093A2038093A1031092B003109283
:10564000AF038AE69CE190932D0480932C04109282
:105650002E0410922F041092CA038FE891E09093C9
:10566000AE038093AD031092B2031092B103109277
:10567000C6031092C9031092BD031092BE0310928C
:10568000BF031092C0038FEF8093C7038093CC03B6
:10569000E0EDF3E086EE93E02FEFCFEF21938E174E
:1056A0009F07D9F788E59BE19093B6038093B503F4
:1056B00081E59DE19093B8038093B70383E790E180
:1056C0009093BA038093B90383E591E19093BC036F
:1056D0008093BB0320E030E040E069E081EB93E0A1
:1056E0000E94581B1092FE031092FD0387EC9CE170
:1056F0009093E7038093E60380E394E09093EB03B9
:105700008093EA0388E08093EC031092ED031092FB
:105710000A041092290481E080932A0480932B04C8
:1057200087E991E09093E9038093E80381EB93E0AC
:105730000E94811C1092F9031092FB03C093FA039C
:10574000C093FC03E091E803F091E9030280F38148
:10575000E02D81EB93E0099583E29DE190930004B5
:105760008093FF03C093DB03C093DC03C093DD038E
:10577000CF910895F999FECF92BD81BDF89A9927EE
:1057800080B50895262FF999FECF1FBA92BD81BD2D
:1057900020BD0FB6F894FA9AF99A0FBE01960895B3
:1057A000052E97FB1EF400940E94E72B57FD07D0AF
:1057B0000E94022C07FC03D04EF40C94E72B50956A
:1057C0004095309521953F4F4F4F5F4F08959095ED
:1057D0008095709561957F4F8F4F9F4F08950E94E0
:1057E000242CA59F900DB49F900DA49F800D911D1A
:1057F00011240895B7FF0C94EF2B0E94EF2B821B0E
:10580000930B0895A1E21A2EAA1BBB1BFD010DC02C
:10581000AA1FBB1FEE1FFF1FA217B307E407F50760
:1058200020F0A21BB30BE40BF50B661F771F881F3C
:10583000991F1A9469F760957095809590959B01D2
:10584000AC01BD01CF010895A29FB001B39FC0017B
:10585000A39F700D811D1124911DB29F700D811D9C
:105860001124911D08955058BB27AA270E944B2C44
:105870000C94C52D0E94B72D38F00E94BE2D20F04B
:1058800039F49F3F19F426F40C94B42D0EF4E095EE
:10589000E7FB0C94AE2DE92F0E94D62D58F3BA17D2
:1058A000620773078407950720F079F4A6F50C9436
:1058B000F82D0EF4E0950B2EBA2FA02D0B01B90197
:1058C00090010C01CA01A0011124FF27591B99F076
:1058D000593F50F4503E68F11A16F040A22F232F82
:1058E000342F4427585FF3CF469537952795A795D2
:1058F000F0405395C9F77EF41F16BA0B620B730B79
:10590000840BBAF09150A1F0FF0FBB1F661F771FE9
:10591000881FC2F70EC0BA0F621F731F841F48F49E
:10592000879577956795B795F7959E3F08F0B0CF27
:105930009395880F08F09927EE0F9795879508950E
:105940000E948A2D08F481E008950E94B92C0C94DD
:10595000C52D0E94BE2D58F00E94B72D40F029F4AD
:105960005F3F29F00C94AE2D51110C94F92D0C943D
:10597000B42D0E94D62D68F39923B1F3552391F3EA
:10598000951B550BBB27AA2762177307840738F0AE
:105990009F5F5F4F220F331F441FAA1FA9F335D00B
:1059A0000E2E3AF0E0E832D091505040E695001CBF
:1059B000CAF72BD0FE2F29D0660F771F881FBB1F79
:1059C000261737074807AB07B0E809F0BB0B802D57
:1059D000BF01FF2793585F4F3AF09E3F510578F083
:1059E0000C94AE2D0C94F92D5F3FE4F3983ED4F364
:1059F000869577956795B795F7959F5FC9F7880F57
:105A0000911D9695879597F90895E1E0660F771FA8
:105A1000881FBB1F621773078407BA0720F0621B39
:105A2000730B840BBA0BEE1F88F7E09508950E9464
:105A30001E2D6894B1110C94F92D08950E94DE2D4D
:105A400088F09F5798F0B92F9927B751B0F0E1F03F
:105A5000660F771F881F991F1AF0BA95C9F714C0EF
:105A6000B13091F00E94F82DB1E008950C94F82D1A
:105A7000672F782F8827B85F39F0B93FCCF3869528
:105A800077956795B395D9F73EF490958095709585
:105A900061957F4F8F4F9F4F0895E89409C097FB02
:105AA0003EF490958095709561957F4F8F4F9F4FF5
:105AB0009923A9F0F92F96E9BB279395F695879539
:105AC00077956795B795F111F8CFFAF4BB0F11F4FC
:105AD00060FF1BC06F5F7F4F8F4F9F4F16C08823A3
